:020000040800F2
:1000000008410020DD9100084D8F00084F8F000847
:10001000518F0008538F0008558F00080000000022
:10002000000000000000000000000000C5580008AB
:10003000578F0008000000006D580008598F000815
:1000400045920008499200084D920008519200081C
:1000500055920008599200085D92000861920008CC
:1000600065920008699200086D920008719200087C
:1000700075920008799200087D920008819200082C
:1000800085920008899200088D92000891920008DC
:1000900095920008999200089D920008A19200088C
:1000A000A5920008A9920008AD920008B19200083C
:1000B000618F0008B5920008B9920008BD9200084F
:1000C000C1920008C5920008C9920008CD920008AC
:1000D000D1920008D5920008D9920008DD9200085C
:1000E000E1920008E5920008E9920008ED9200080C
:1000F000F1920008F5920008F9920008FD920008BC
:10010000019300086B8F000805930008099300080D
:100110000D93000811930008159300081993000827
:100120001D9300082193000825930008758F00088F
:100130002993000800000000000000002D93000833
:100140003193000835930008399300087F8F000829
:100150003D930008898F00084193000845930008EB
:10016000499300084D9300085193000855930008E7
:10017000599300085D930008000000000000000093
:1001800061930008659300084FF4E0721044026820
:10019000914203D343681A44914202D380680028F5
:1001A000F5D17047DFF85C07016891B94FF48031F1
:1001B00081604FF4805141604FF0FF31C1600161B7
:1001C0000421DFF844274161C2F8BC11DFF83C1775
:1001D00001600120704701F1080313F0070305D007
:1001E00001F10803C3F1080303F007031944D21A0D
:1001F0008161C26042F001034B60114428234B60CF
:10020000DFF800170969C16170472DE9F84F06460C
:1002100001F1080010F0070008BF884607D001F17F
:100220000800C0F1080000F0070001EB000802F12F
:10023000080010F0070006D002F10800C0F1080025
:1002400000F0070002441546A5EB0800A0EB0309E7
:1002500008EB030B43F00300C8F80400AB4528BFCC
:1002600001F00CFA2879C00758BF01F007FAB9F17C
:10027000100F38BF01F002FAB069854209D1F06869
:100280004844F060C6F818B040F00100CBF8040014
:1002900070E1706985420BD1B0684844B060C6F81F
:1002A00014B040F00101CBF804104BF8000061E1FC
:1002B000686800F00301012940F0AF80C008C00069
:1002C0000190C00820283BD2D5F808A0EF68009024
:1002D000BD4208BF01F0D2F9554508BF01F0CEF983
:1002E00068680099C008C000B0EBC10F18BF01F0EA
:1002F000C5F9009806EBC00000F128018A4508D036
:1003000031698A45C0F08480DAF80C10A94240F0C7
:100310007F80574506D1009A30680121914088437B
:10032000306077E02830874205D0306987426FD34C
:10033000B868A8426CD1CAF80C70C7F808A069E088
:10034000EF68D5F818A0AF420CD0A8683169884290
:1003500023D3C168A94204BFB968A9421DD1C760AF
:10036000B8601CE005F11400076837B905F110000A
:100370000768A7B101E00846076807F114010A6899
:10038000002A02BF07F110010A68002AF3D131697F
:10039000884202D30021016001E001F06FF9BAF157
:1003A000000F37D0E86906EB80004FF498710844DD
:1003B00001688D4208D10760A7B9EA697068012118
:1003C00091408843706025E03069824508D3DAF8AF
:1003D0001000A84214BFCAF81470CAF8107001E0E7
:1003E00001F04CF9B7B13069874211D3C7F818A0B2
:1003F000296929B1814226BF39618F6101F03EF937
:10040000686938B13169884202D37861876101E057
:1004100001F034F9019805448144686840084000BF
:1004200068604FEAD90549F00100CBF804004BF8A9
:100430000990202D23D206EBC50000F12807BA460B
:10044000B9F1100F38BF01F019F9306820FA05F141
:10045000C90704D40121A9400843306006E0B86808
:10046000316988422CBF824601F008F9C7F808B00C
:10047000CAF80CB0CBF808A0CBF80C707AE05FEAB1
:10048000192108BF002023D0B1F5803F28BF1F20CD
:100490001ED2A1F58070000C00F008008140A1F58B
:1004A0008052120C02F004029140A1F580431B0C13
:1004B000C0F10E0003F00203801AC01A994000EB4D
:1004C000D130C11D29FA01F202F0010101EB400017
:1004D00006EB80014FF498721144CBF81C00002207
:1004E000CBF81420CBF81020726822FA00F3DB0757
:1004F00007D4012303FA00F010437060C1F800B084
:100500001DE009681F281DBF4008C0F1190009FA45
:1005100000F0484600E011464A68D208D2004A4539
:1005200014D0C20F01EB820202F1100340001A68DE
:10053000002AF0D1306983421AD3C3F800B0CBF857
:100540001810CBF80CB0CBF808B013E0326988680B
:10055000914228BF90420BD3C0F80CB0C1F808B04C
:10056000CBF80800CBF80C100020CBF8180001E005
:1005700001F084F808F10800BDE8E68F2DE9FA4D96
:100580000546DFF88003006882B008B9FFF70AFE6D
:10059000DFF870030299806841182F31401E21EA6C
:1005A00000000299814280F0A9814FF4D8716E1841
:1005B000B16839B132688018824280F09F818142EF
:1005C000C0F09C8101F05EF800281EBF0446D0F800
:1005D000008014F1010F00F091813068716840448F
:1005E0008142306038BF01467160A86980BB2869CC
:1005F00008B1844200D22C610020F0613461C6F859
:10060000148005F12801BF48006868624FF0FF3090
:1006100028620020C960896001F108024A610A610C
:10062000801C10312028F5D3B748854203D1A8F1AA
:10063000280221462AE055F8040CC00805EBC0004A
:10064000A0F1080104EB0800401AA0F128021DE007
:100650004FF4E0702918084600E08068D0B10268C5
:1006600043681A449442F8D1027B120712D4AA6953
:1006700003689A420ED347683B449A420AD208EB79
:1006800007014160E868A96908EB00022846FFF706
:10069000A2FD1DE128698442084638BF2C6104EBA5
:1006A000080100E0806880B102688A42FAD1017BCB
:1006B00009070AD404604168414441602146029B15
:1006C000284604B0BDE8F04D9FE5AF69394628469D
:1006D000FFF75AFD4FF0000B016840680844019095
:1006E000273810F0070101990EBF0020C0F1080063
:1006F00000F0070008442F3807F11001884234BF8A
:1007000000970090009804F1080100F1180A11F018
:100710000701A8F1280005D004F10801C1F1080182
:1007200001F00701401A2144A961E86040F001028C
:100730004A6008442822426072480069E8610098D3
:10074000083010F0070018BF00F098FF00991B2038
:1007500048604FF4E0712944B1E80C50009808302B
:10076000A0E80C503461C6F81480C6F81CB000989C
:100770000830B061019801E00AF1040A0721CAF8C3
:1007800004100BF1010B0AF108018142F4D3BBF113
:10079000020FB8BF00F072FF0098B84200F09880D6
:1007A000C01B3918C4084A68520852004A6040F019
:1007B000010179603850202C20D205EBC40101F1F1
:1007C0002806B046102838BF00F058FF286820FAE5
:1007D00004F1C90704D40121A1400843286006E0C0
:1007E000B068296988422CBF804600F047FFB76097
:1007F000C8F80C70C7F80880FE6069E0010A23D0D1
:10080000B1F5803F28BF1F211ED2A1F58072120CC6
:1008100002F008029140A1F580531B0C03F0040381
:100820009940A1F58044240CC2F10E0204F00204A8
:10083000D21A121BA14002EBD131CA1D20FA02F3D9
:1008400003F0010202EB410105EB81024FF49873C2
:100850001A44F96100237B613B616B6823FA01F460
:10086000E40705D4012088401843686017601CE045
:1008700012681F291DBF4908C1F1190100FA01F1D1
:10088000014600E01A465368DB08DB00834210D0C3
:10089000CB0F02EB830303F1100449002368002B04
:1008A000F0D12869844211D32760BA61FF60BF602C
:1008B0000EE0296990688A4228BF884206D3C76043
:1008C0009760B860FA600020B86101E000F0D6FEE1
:1008D000E8680299814211D2401AE860A969029A37
:1008E0000A44AA6140F001005060029840F0030001
:1008F000486004B001F10800BDE8F08D002004B0AC
:10090000BDE8F08D20A900201CA500206859883C76
:100910002DE9F84F0446002689465FEA1920C9F1FF
:10092000000B08BF002123D0B0F5803F28BF1F2156
:100930001ED2A0F58071090C01F008018840A0F5D5
:100940008052120C02F004029040A0F580431B0C70
:10095000C1F10E0103F00203891AC91A984001EB94
:10096000D030C11D29FA01F202F0010101EB400172
:1009700004EB8100D0F8300118B31F290FBF4A469D
:100980004A08C2F1190209FA02F2002300E05200FB
:100990004568ED08ED00A5EB09055D4503D25FEA6A
:1009A000050B06460BD04569D70F00EB8700002DDD
:1009B00000691CBF85422B460028E8D11846B8BB09
:1009C000C6BB01208840400041420843616808409E
:1009D00000F05D8141420840401E010B01F0100112
:1009E000C840420902F00802D040830803F0040323
:1009F000D840450805F002055118E8405918C0F3E1
:100A0000400729443944F840401804EB8000D0F8EE
:100A100030010DE008464168C908C900A1EB090191
:100A200059453CBF8B46064601690029F2D1406911
:100A30000028F0D1002E00F02A81A068A0EB090068
:100A4000834580F0248120698642C0F01E81706851
:100A5000C00809EB0B08C000404518BF00F00EFEAF
:100A600006EB0905AE4280F01081F768D6F818A0B1
:100A7000B7420CD0B0682169884223D3C168B14223
:100A800004BFB968B1421DD1C760B8601CE006F16F
:100A90001400076837B906F110000768A7B101E034
:100AA0000846076807F114010A68002A02BF07F127
:100AB00010010A68002AF3D12169884202D300217B
:100AC000016001E000F0DAFDBAF1000F39D0F06901
:100AD00004EB80004FF49871084401688E4209D1FC
:100AE0000760380014D1F2696068012191408843A1
:100AF000606026E02069824508D3DAF81000B04231
:100B000014BFCAF81470CAF8107001E000F0B6FD06
:100B1000BFB12069874212D3C7F818A0306930B13D
:100B20002169884226BF3861876100F0A7FD70699E
:100B300038B12169884202D37861876101E000F011
:100B40009DFDBBF1100F09D248F00300706006EB69
:100B50000800416841F00101416095E049F003005F
:100B600070604BF0010068604FEADB0045F80BB0A5
:100B700020281DD204EBC00101F12807216821FAC9
:100B800000F2D207BB4605D4012202FA00F0084366
:100B9000206006E0B868216988422CBF834600F0D7
:100BA0006DFDBD60CBF80C50C5F808B0EF606BE090
:100BB0005FEA1B2023D0B0F5803F28BF1F201ED244
:100BC000A0F58071090C01F008018840A0F5805261
:100BD000120C02F004029040A0F580431B0CC1F1FE
:100BE0000E0103F00203891AC91A984001EBD030B4
:100BF000C11D2BFA01F202F0010101EB400004EBF0
:100C000080014FF498721144E86100226A612A6100
:100C1000626822FA00F3DB0706D4012303FA00F02E
:100C2000104360600D601CE009681F281DBF40086C
:100C3000C0F119000BFA00F0584600E011464A686E
:100C4000D208D2005A4510D0C20F01EB820202F145
:100C5000100340001A68002AF0D12069834211D3A2
:100C60001D60A961ED60AD600EE022698868914267
:100C700028BF904206D3C5608D60A860E96000205F
:100C8000A86101E000F0FAFC08E100F0F7FC02E1E5
:100C90002DE9F84F04468846606841420840401EEE
:100CA000010B01F01001C840420902F00802D040D7
:100CB000830803F00403D840450805F002055118E5
:100CC000E8405918C0F3400629447118F040401814
:100CD00004EB8000D0F830014168C908C90006461D
:100CE000A1EB080A09E008464168C908C900A1EB60
:100CF000080151453CBF8A46064601690029F2D1E8
:100D000040690028F0D120698642C0F0C280706836
:100D1000C00808EB0A09C000484518BF00F0AEFC47
:100D200006EB080B5E4580F0B480F768B569B74202
:100D30000CD0B0682169884223D3C168B14204BF96
:100D4000B968B1421DD1C760B8601CE006F114005B
:100D5000076837B906F110000768A7B101E0084637
:100D6000076807F114010A68002A02BF07F11001A1
:100D70000A68002AF3D12169884202D30021016068
:100D800001E000F07BFC002D35D0F06904EB800021
:100D90004FF49871084401688E4209D10760380009
:100DA00011D1F2696068012191408843606022E0BE
:100DB0002069854205D32869B04214BF6F612F6155
:100DC00001E000F05BFCB7B12069874211D3BD613F
:100DD000306930B12169884226BF3861876100F0EF
:100DE0004DFC706938B12169884202D3786187610E
:100DF00001E000F043FCBAF1100F09D249F0030002
:100E0000706006EB0900416841F0010141603FE07C
:100E100048F0030070604AF00100CBF804004BF882
:100E20000AA0D4F808804FEAD805202D28BF00F08A
:100E300025FCB8F1000F27D0D4F81490009504EBEE
:100E4000C50000F128052F46B8F1100F38BF00F09B
:100E500015FC2068009920FA01F2D10705D4009A08
:100E6000012191400843206006E0A868216988427A
:100E70002CBF074600F002FCC5F80890C7F80C909C
:100E8000C9F80870C9F80C50C4F808A0C4F814B028
:100E900004E000F0F3FB0020BDE8F28F06F108004B
:100EA000BDE8F28F2DE9F04F83B00546C046C0463D
:100EB000F52DDFF8C04780F002810B2D31BF1027E0
:100EC00005F10B00C708FF002068FE08F04010F095
:100ED000030F42D0C04300F00100861904EBC600A6
:100EE00000F12808F700D8F808506868C008C0006A
:100EF000B84218BF00F0C2FBD5F80890454508BFBE
:100F000000F0BCFB4D4508BF00F0B8FB6868C008A6
:100F1000C000B84218BF00F0B1FBC84505D1206839
:100F20000121B140884320600DE02069814508D34C
:100F3000D9F80C00A84204D1C8F80890C9F80C8070
:100F400001E000F09BFB47F003006860E8190835FA
:100F5000416841F001014160F9E0A168B94280F0C7
:100F6000C080002800F0A280012505FA06F14900A2
:100F70004A42B0401143084041420840401E010B24
:100F800001F01001C840420902F00802D040830875
:100F900003F00403D840460806F002065118F0405A
:100FA0005918C0F340087118414420FA08F000EBCA
:100FB000010804EBC80000F128094FEAC80AD9F873
:100FC00008607068C008C000504518BF00F056FBAC
:100FD000D6F808B04E4508BF00F050FB5E4508BF8C
:100FE00000F04CFB7068C008C000504518BF00F00E
:100FF00045FBD94505D1206805FA08F188432060F2
:101000000DE02069834508D3DBF80C00B04204D121
:10101000C9F808B0CBF80C9001E000F02FFB47F0C6
:1010200003007060AAEB0708F019019048F0010076
:1010300001994860019840F80880A7684FEAD70AEC
:10104000BAF1200F28BF00F019FB47B3CDF800A07C
:1010500004EBCA00D4F8149000F1280AD346102FEC
:1010600038BF00F00BFB2068009920FA01F2D1078D
:1010700005D4009905FA01F10843206007E0DAF889
:101080000800216988422CBF834600F0F7FACAF8AD
:101090000890CBF80C90C9F808B0C9F80CA0C4F8B7
:1010A000088006F108050198606150E06068C0B3EF
:1010B00039462046FFF7ECFD050012D047E015F158
:1010C000400F28BF4FF0FF370BD205F10B00C708C8
:1010D0006068FF0028B139462046FFF719FC05007B
:1010E00035D1A068B8421CD3C11B626910290AD34C
:1010F000D0196061A16041F001034360415047F0A5
:10110000030050600AE00021A160616140F003012A
:1011100051601044416841F00101416002F108054D
:1011200015E0E06887420DD2C01BA169E060CA19D2
:10113000A26140F00100506001F1080547F0030092
:10114000486004E039462046FFF718FA0546C046D5
:10115000C046284603B0BDE8F08F00B970472DE9BE
:10116000F047A0F10804C046C046DFF808552869DA
:101170008442C0F07982616801F00302012A00F024
:101180007382CA084FEAC208CA0704EB080937D4B9
:10119000226811F0030F00F0698251420C4484422E
:1011A0009044C0F0618269698C4200F0D980D60811
:1011B000202E70D2D4F80CA0A768544508BF00F0C8
:1011C0005DFABC4208BF00F059FA6068C008C00070
:1011D000B0EBC60F18BF00F051FA05EBC60000F1E6
:1011E00028018F4205D029698F4251D3F968A14265
:1011F0004ED1BA453DD128680121B14088432860CD
:101200004C4580F03182D9F80400C10740F12C82AE
:10121000810700F17D81A969894540F0B680E868C1
:10122000AC614044E86040F00101616069698C4252
:1012300002D100216961A960E969814280F01682CA
:10124000DFF83404006808B9FEF7ACFFA96900298B
:1012500000F00C82E868292824BF2846FEF794FF96
:10126000E869E968884280F001824FF0FF30E86168
:10127000FCE12830824506D02869824508D3DAF897
:101280000800A04204D1C7F80CA0CAF80870B7E75C
:1012900000F0F4F9B4E7E768A669A7420BD0A168AB
:1012A000814222D3C868A04204BFB868A0421CD1C2
:1012B000CF60B9601BE004F114010F6837B904F185
:1012C00010010F689FB101E011460F6807F1140289
:1012D0001368002B02BF07F110021368002BF3D133
:1012E000814202D30020086001E000F0C7F9002E1F
:1012F00086D0E06905EB80004FF4987108440168DE
:101300008C4209D10760380011D1E2696868012177
:1013100091408843686073E72869864205D3306945
:10132000A04214BF7761376101E000F0A7F9002FF8
:101330003FF466AF28698742AAD3BE61216929B10B
:10134000814226BF39618F6100F098F960690028F9
:101350003FF456AF296988429AD3786187614FE795
:1013600099F8040000F0030003287FF449AFC5F8A2
:101370000880D9F8040040084000C9F8040048F08B
:101380000100606044F8088070E16969894508D10E
:10139000A8686C614044A86040F001016160205081
:1013A00064E1C008C0004FEAD00ABAF1200F8044BF
:1013B00037D2D9F80C70D9F80860B94508BF00F0E9
:1013C0005DF9B14508BF00F059F9D9F80400C0082B
:1013D000C000B0EBCA0F18BF00F050F905EBCA000F
:1013E00000F128018E4207D029698E42C0F0838027
:1013F000F168494540F07F80B74206D12868012155
:1014000001FA0AF18843286077E02830874205D046
:10141000286987426FD3B86848456CD1F760BE60D1
:101420006BE0D9F80C70D9F818604F450DD0D9F899
:1014300008002969884223D3C168494504BFB968B7
:1014400049451DD1C760B8601CE009F11400076868
:1014500037B909F110000768A7B101E0084607682D
:1014600007F114010A68002A02BF07F110010A6897
:10147000002AF3D12969884202D30021016001E0EA
:1014800000F0FCF8002E38D0D9F81C0005EB8000E5
:101490004FF498710844016889450AD10760380003
:1014A00012D1D9F81C2068680121914088436860F6
:1014B00023E02869864205D33069484514BF776127
:1014C000376101E000F0DAF8BFB12869874212D332
:1014D000BE61D9F8101029B1814226BF39618F61F0
:1014E00000F0CCF8D9F8140038B12969884202D349
:1014F0007861876101E000F0C1F848F001006060A8
:1015000044F80880686984420BD1C5F80880ADE0D2
:1015100040084000C9F8040048F00100606044F849
:1015200008804FEAD807202F22D205EBC70000F130
:1015300028094E46B8F1100F38BF00F09FF8286810
:1015400020FA07F1C90704D40121B94008432860F3
:1015500007E0D9F80800296988422CBF064600F048
:101560008DF8C9F80840F460A660C4F80C907DE0DE
:101570005FEA182008BF002123D0B0F5803F28BFC4
:101580001F211ED2A0F58071090C01F008018840CE
:10159000A0F58052120C02F004029040A0F58043A6
:1015A0001B0CC1F10E0103F00203891AC91A9840FD
:1015B00001EBD030C11D28FA01F202F0010101EB6C
:1015C000400105EB81004FF49872104400226261E3
:1015D0002261E1616A6822FA01F3DB0706D4012384
:1015E00003FA01F11143696004601CE000681F29DF
:1015F0001DBF4908C1F1190108FA01F1414600E097
:1016000010464268D208D200424510D0CA0F00EB03
:10161000820202F1100349001A68002AF0D12969F8
:101620008B4211D31C60A061E460A4600EE02A69C3
:101630008168904228BF914206D3CC608460E0600C
:10164000A1600020A06101E000F018F8286A401EA7
:1016500028620BD1D5F8C80100E080680028FCD1D1
:101660004FF0FF30286201E000F008F8C046C046A5
:10167000BDE8F0871CA5002020A90020012000F073
:1016800017B800000749086808B1002070470648ED
:10169000C008C00008600549C908C900091A0160EE
:1016A000704700BF0CAA00200F41002008610020F5
:1016B00080B5C046C046024A11001820ABBEFBE709
:1016C0002600020010B50400002C01D1012016E014
:1016D00094F83400002804D100202077200000F086
:1016E000EAFF032084F83400200000F009F800200D
:1016F000A06300202063012084F83400002010BD86
:1017000030B589B00400002500200390002004902B
:101710000020059000200690002007907620089079
:1017200003A983B06846182201F098F80EBC20681F
:1017300001F0C0F80020DFF894160860206801F07E
:10174000DAF80120DFF884160860022001F07CFC42
:10175000200000F0C1FD0500002D07D0012084F815
:101760003400A06B2843A06301200EE0200000F0AD
:1017700032FD0500002D07D0012084F83400A06B55
:101780002843A063012000E0002009B030BD2DE90E
:10179000F24F86B0040093461D00109E002701F012
:1017A00063FC80465FF00009DDF818A00698002869
:1017B00005D1A06B50F00060A06301200FE194F808
:1017C0003400012840F006810020A063E06D15EB95
:1017D0000B01884205D2A06B50F00070A06301207D
:1017E000FDE0032084F8340000202168C862606CAA
:1017F000012803D04FF4007000FB0BFB4FF4007185
:10180000206801F0BCF80700002F0BD040F2FF5019
:1018100021688863A06B3843A063012084F83400FA
:101820000120DCE05FF0FF3000904FF4007000FB1F
:1018300005F0019090200290022003900020049077
:10184000012005906946206801F082F8022D07D337
:10185000022020635946206801F0CBF8070006E01B
:10186000012020635946206801F0A6F80700002FE8
:101870000BD040F2FF5021688863A06B3843A0630F
:10188000012084F834000120A9E02068406B40F278
:101890002A31084227D12068406B00040ED5002071
:1018A0008146B9F1080F07D2206801F01BF84AF809
:1018B000290019F10109F4E71AF1200A002E05D0D8
:1018C00001F0D2FBB0EB0800B042DED340F2FF5093
:1018D00021688863A06B50F00040A063012084F869
:1018E000340003207BE02068406BC00516D5022D34
:1018F00014D3606C032811D0206801F0D1F80700E0
:10190000002F0BD040F2FF5021688863A06B384352
:10191000A063012084F83400012060E02068406B5F
:1019200000070CD540F2FF5021688863A06B50F08F
:101930000800A063012084F8340001204FE02068F3
:10194000406B80070CD540F2FF5021688863A06B84
:1019500050F00200A063012084F8340001203EE032
:101960002068406B80060CD540F2FF5021688863E8
:10197000A06B50F02000A063012084F83400012007
:101980002DE02068406B80021BD5206800F0AAFF84
:10199000CAF800001AF1040A002E05D001F064FB19
:1019A000B0EB0800B042ECD340F2FF5021688863EE
:1019B000A06B50F00040A063012084F834000120A7
:1019C0000DE040F2FF5021688863012084F8340064
:1019D000002004E0A06B50F00050A063012007B08D
:1019E000BDE8F08F2DE9F24F86B0040093461D004C
:1019F000109E002701F038FB80465FF00009DDF8FB
:101A000018A00698002805D1A06B50F00060A063D4
:101A10000120EEE094F83400012840F0E580002039
:101A2000A063E06D15EB0B01884205D2A06B50F06E
:101A30000070A0630120DCE0032084F83400002063
:101A40002168C862606C012803D04FF4007000FB6D
:101A50000BFB4FF40071206800F091FF0700002F8E
:101A60000BD040F2FF5021688863A06B3843A0631D
:101A7000012084F834000120BBE0022D07D3202090
:101A800020635946206800F0EEFF070006E01020B2
:101A900020635946206800F0C9FF0700002F0BD0D3
:101AA00040F2FF5021688863A06B3843A063012097
:101AB00084F8340001209CE05FF0FF3000904FF488
:101AC000007000FB05F00190902002900020039030
:101AD00000200490012005906946206800F038FF3E
:101AE0002068406B40F21A31084226D12068406BD2
:101AF00040040ED500208146B9F1080F07D20AEB49
:101B00008901206800F0F1FE19F10109F4E71AF1EA
:101B1000200A002E05D001F0A7FAB0EB0800B04271
:101B2000DED340F2FF5021688863A06B3843A06386
:101B3000012084F8340003205BE02068406BC0057E
:101B400016D5022D14D3606C032811D0206800F044
:101B5000A7FF0700002F0BD040F2FF5021688863D9
:101B6000A06B3843A063012084F83400012040E0DA
:101B70002068406B00070CD540F2FF502168886355
:101B8000A06B50F00800A063012084F8340001200D
:101B90002FE02068406B80070CD540F2FF50216891
:101BA0008863A06B50F00200A063012084F8340029
:101BB00001201EE02068406BC0060CD540F2FF50AB
:101BC00021688863A06B50F01000A063012084F8A6
:101BD000340001200DE040F2FF50216888630120AD
:101BE00084F83400002004E0A06B50F00050A063A3
:101BF000012007B0BDE8F08F38B50400002520684B
:101C0000406BC0055BD54FF4807021688863206805
:101C1000C06B6F4908402168C863206B000726D558
:101C2000206B800702D4206B80060BD5206800F063
:101C300037FF0500002D05D0A06B2843A0632000CE
:101C400001F018FA40F2FF5021688863012084F8FF
:101C50003400206BC00702D4206B800703D520001E
:101C600001F009FAB0E0200001F006FAACE0206BC8
:101C7000000640F1A980206B80060BD5206800F09B
:101C80000FFF0500002D05D0A06B2843A0632000A6
:101C900001F0F0F9206BC00700F19680206B8007FF
:101CA00000F192802068C06A30F008002168C862A4
:101CB000012084F83400200001F0DEF984E020687F
:101CC000406B400407D54FF48040216888632000B2
:101CD00000F0ADFC78E02068406B000407D54FF4BD
:101CE000004021688863200000F08CFC6CE02068D4
:101CF000406B40F23A21084266D02068406B800772
:101D000003D5A06B50F00200A0632068406B000771
:101D100003D5A06B50F00800A0632068406B8006DC
:101D200003D5A06B50F02000A0632068406BC00674
:101D300003D5A06B50F01000A0632068406B8005B5
:101D400003D5A06B50F00800A06340F2FF7021683B
:101D500088632068C06B1E4908402168C863206BF7
:101D6000000628D5206C00280CD00FF2BD30216C65
:101D70000865206C01F0F5F9002825D0206C00F0F2
:101D8000D3F921E0E06B00280CD00FF2F530E16BC5
:101D90000865E06B01F0E5F9002815D0E06B00F074
:101DA000EFF911E00020A063012084F83400200046
:101DB00001F060FB08E0206B000705D5012084F8E6
:101DC0003400200001F056F931BD0000A08025420A
:101DD000C5FCFFFF30B402000023506E000E03006C
:101DE000C3F381100870C3F38300487013F003003D
:101DF0008870506EC0F307400300CB70506EC0F384
:101E0000072003000B7192F8640000F0FF0003004C
:101E10004B71906E000E03001801C880906EC0F3E5
:101E200007400300C888C3F303142043C88013F09D
:101E30000F000872906EC0F307200300C3F3C010B8
:101E40004872C3F380108872C3F34010C872C3F3A2
:101E50000010087300204873506C002847D1980286
:101E600010F44060086192F868000300086950EAC5
:101E700083000861D06E000EC0B203000869C3F38E
:101E8000811420430861C3F3C200087513F00700F2
:101E90004875D06E000CC0B20300C3F342108875C1
:101EA000C3F38200C875580010F006000876D06EA3
:101EB000000AC0B20300087EC3F3C01420430876B2
:101EC0000869401C5065506D01240D7EAD1CAC406E
:101ED0006043506501200C7AA0409065506D946D70
:101EE000640A6043D0654FF40070106637E0506CB0
:101EF000012827D192F868000300180410F47C1020
:101F00000861D06E000EC0B20300086950EA0320D9
:101F10000861D06E000CC0B2030008691843086164
:101F2000D06E000AC0B203000869401C4FF4806400
:101F300060435065506DD0654FF400709065906DB2
:101F400010660CE040F2FF501468A063906B50F0F4
:101F500080509063012082F8340001205DE0C3F3DB
:101F600080104876580010F07E00887692F86C0059
:101F70000300887EC3F3C0142043887613F07F00EB
:101F8000C876106F000EC0B20300C3F3C01008770C
:101F9000C3F341104877C3F382008877980010F0AC
:101FA0000C00C877106F000CC0B20300C87FC3F3E9
:101FB00081142043C877C3F3401081F8200000202B
:101FC00081F8210013F0010081F82200106F000A4F
:101FD000C0B20300C3F3C01081F82300C3F3801024
:101FE00081F82400C3F3401081F82500C3F30010EA
:101FF00081F82600C3F3810081F8270013F0030065
:1020000081F8280092F870000300C3F3460081F8BD
:102010002900012081F82A00002030BC704702000E
:10202000506C0860906C4860D06C8860106DC8601F
:10203000506D0861906D4861D06D8861106EC86107
:102040000020704770B58AB004000E000025032000
:1020500084F83400606C032821D0B6F5805F04D189
:10206000A06B50F08050A0631DE0B6F5006F07D163
:10207000200000F0BFF90500A06B2843A06312E028
:10208000002E07D1200000F0EBF90500A06B2843DB
:10209000A06308E0A06B50F00060A06303E0A06BB9
:1020A00050F08050A063A06B002808D040F2FF5091
:1020B00021688863012084F83400012018E06068FA
:1020C0000390A0680490E068059006966069079008
:1020D000A069089003A983B06846182200F0BEFBEF
:1020E0000EBC206800F0E6FB012084F834000020DC
:1020F0000AB070BD70B582B004000425002600202F
:1021000000906946200000F05BF90600002E02D026
:10211000A06B3043A0630098400A10F00F00050048
:102120002800C0B276BD000070B50400A56B286C15
:10213000002801D000202864E86B00281ED1280068
:10214000FFF7D8FF06000020A863012085F83400BF
:10215000F6B2062E02D0F6B2052E0FD1286800F096
:102160009FFCA96B0843A863A86B002803D0280034
:1021700001F080F902E0280000F07CFF70BD000053
:1021800070B50400A56BE86B002801D00020E8635F
:10219000286C00281ED12800FFF7ACFF06000020A5
:1021A000A863012085F83400F6B2062E02D0F6B2FC
:1021B000052E0FD1286800F073FCA96B0843A863B3
:1021C000A86B002803D0280001F054F902E0280091
:1021D00000F050FF70BD30B58FB004000025012025
:1021E000ADF80C00206800F08BFB002802D15FF0F6
:1021F00080606FE0606C03281CD0206800F034FD24
:102200000500002D01D0280064E00021206800F0C6
:1022100093FB60670421206800F08EFBA067082113
:10222000206800F089FBE0670C21206800F084FB47
:10223000C4F88000606C032808D003A9206800F06F
:1022400047FD0500002D01D0280043E0606C032805
:1022500020D0BDF80C002065206D0104206800F03E
:102260001DFD0500002D01D0280033E0002120686D
:1022700000F062FB60660421206800F05DFBA06650
:102280000821206800F058FBE0660C21206800F06F
:1022900053FB20670421206800F04EFB000DE06432
:1022A00004A92000FFF796FD206D0204002320689A
:1022B00000F013FC0500002D01D028000AE0211DCC
:1022C00083B06846182200F0C9FA0EBC206800F0FE
:1022D000F1FA00200FB030BDF8B5040000200090E6
:1022E000002500260027206800F015FC0700002FBD
:1022F00001D0380063E0206800F027FC0700002FC1
:102300002CD00020A064002E25D10098411C009103
:102310004FF6FF71884202D15FF080704FE00021DC
:10232000206800F02DFC0700002F02D05FF08050E5
:1023300045E00021206800F040FC0700002F02D09B
:102340005FF080503BE00021206800F0F5FA0500C6
:10235000E80F0600D7E7002060642FE00120A064AA
:10236000002E24D10098411C00914FF6FF71884245
:1023700002D15FF0807022E00021206800F000FCB4
:102380000700002F01D0380019E05FF0804120687D
:1023900000F013FC0700002F01D038000FE00021EF
:1023A000206800F0C9FA0500E80F0600D8E76800C9
:1023B00002D50120606401E0002060640020F2BDCD
:1023C00070B504000D000026002D02D15FF0006002
:1023D0000FE0206D0104206800F097FC0600002E3D
:1023E00001D0300005E00021206800F0A5FA286047
:1023F000002070BD30B583B0040068460021002283
:10240000C0E9001200250021206800F095FA800143
:1024100002D54FF4006022E06946200000F056F833
:102420000500002D01D0280019E00198400314D5C3
:10243000206D0104206800F0A3FB0500002D01D0F1
:1024400028000CE00221206800F0D4FB0500002DDC
:1024500001D0280003E0002001E05FF080603EBD75
:1024600030B583B00400684600210022C0E90012A4
:1024700000250021206800F05FFA800102D54FF4AA
:10248000006022E06946200000F020F80500002DE1
:1024900001D0280019E00198C00314D5206D010473
:1024A000206800F06DFB0500002D01D028000CE035
:1024B0000021206800F09EFB0500002D01D02800BF
:1024C00003E0002001E05FF080603EBD2DE9F041B7
:1024D00088B004000D005FF0000800F0C5FD0600A4
:1024E0000027684600210022C0E900120821206868
:1024F00000F045FA8046B8F1000F01D040467EE07A
:10250000206D0104206800F03BFB8046B8F1000F0D
:1025100001D0404673E05FF0FF3002900820039046
:1025200030200490022005900020069001200790A2
:1025300002A9206800F00CFA206800F078FB8046C1
:10254000B8F1000F01D0404659E02068406B40F2DE
:102550002A41084213D12068406B800206D52068CA
:1025600000F0C0F9694641F827007F1C00F07CFDAF
:10257000801B10F1010FE8D15FF000403FE02068C0
:10258000406B000704D5082021688863082036E0E6
:102590002068406B800704D50220216888630220F0
:1025A0002DE02068406B800604D5202021688863D8
:1025B000202024E040F2FF502168886300980099B1
:1025C000090211F47F0151EA00600099090A11F42F
:1025D0007F410843009950EA1160686001980199B1
:1025E000090211F47F0151EA00600199090A11F40E
:1025F0007F410843019950EA11602860002008B02B
:10260000BDE8F08170B504000025A06A0600002036
:102610000500082D06D2206800F064F946F8250070
:102620006D1CF6E7A06A2030A062002070BD70B576
:1026300004000025206A060000200500082D06D2AF
:1026400006EB8501206800F050F96D1CF6E7206A62
:1026500020302062002070BD80B5032000F074FFA0
:10266000002200217FF00B0000F074FF0022002107
:102670007FF00A0000F06EFF002200217FF00900C9
:1026800000F068FF002200217FF0040000F062FFEC
:10269000002200217FF0030000F05CFF00220F21E8
:1026A0007FF0010000F056FF00220F215FF0FF30A5
:1026B00000F050FF01BD10B586B0040020685E49EF
:1026C000884240F0B680002000905C48006850F4DA
:1026D00000605A4908605948006810F40060009092
:1026E00000984FF48850019002200290012003903E
:1026F000032004900C20059001A9514800F06CFFC4
:102700004FF46060019002200290002003900320AB
:1027100004900C20059001A9494800F05DFF0420B9
:1027200001900220029001200390032004900C20CD
:10273000059001A9434800F04FFF43484349086012
:102740005FF00060414948600020404988600020F7
:102750003E49C8604FF480603C4908614FF48050A6
:102760003A4948614FF48040384988612020374910
:10277000C8610020354908620420344948620320BA
:10278000324988625FF400003049C8625FF400108B
:102790002E4908632D4800F071FC002803D09621D3
:1027A0002B4801F064F92948E063284884632948EC
:1027B000294908605FF000602749486040202649A9
:1027C000886000202449C8604FF480602249086175
:1027D0004FF48050204948614FF480401E49886181
:1027E00020201D49C86100201B49086204201A49A5
:1027F00048620320184988625FF400001649C862E5
:102800005FF4001014490863134800F037FC0028F7
:1028100003D0AB210E4801F02AF90F4820640E487E
:10282000846300220621312000F094FE312000F064
:10283000A4FE06B010BD0000002C01404438024048
:1028400000080240000C02405864024004A8002026
:10285000A88F0008A064024064A80020103A07D3A3
:1028600030B4B1E83810103AA0E83810F9D230BCD2
:10287000530724BFB1E80810A0E8081044BF51F87E
:10288000043B40F8043BD20724BF31F8022B20F868
:10289000022B44BF0B7803707047083A07D3B1E8A6
:1028A0000810083A40F8043B40F804CBF7D253072D
:1028B000E4E700000EB4010000220098019B1843D9
:1028C000029B1843039B1843049B1843059B184322
:1028D00002434868DFF85C37184010434860002026
:1028E00003B07047D0F88000704702000868C2F853
:1028F000800000207047010003200860002070471E
:10290000006810F00300704710B40200002308684C
:10291000906048688C682043CC6820430C69204351
:102920000343D068000B00031843D060002010BCA4
:1029300070470069C0B2704781B00200002000906B
:1029400012F11400081800900098006801B0704758
:1029500010B40200002308685062486890628868DA
:10296000CC6820430C6920434C6920430343D06A60
:1029700030F0F7001843D062002010BC704770B5EB
:1029800086B004000D000026009510200190402024
:102990000290002003904FF480600490694620006C
:1029A000FFF7B2FF41F288321021200000F0E5F974
:1029B0000600300006B070BD70B586B004000D0092
:1029C00000260095112001904020029000200390E5
:1029D0004FF48060049069462000FFF795FF41F2B4
:1029E00088321121200000F0C8F90600300006B03E
:1029F00070BD70B586B004000D0000260095122051
:102A0000019040200290002003904FF480600490D9
:102A100069462000FFF778FF41F28832122120003A
:102A200000F0ABF90600300006B070BD70B586B09E
:102A300004000D000026009518200190402002900F
:102A4000002003904FF48060049069462000FFF757
:102A50005BFF41F288321821200000F08EF9060059
:102A6000300006B070BD70B586B004000D000026C1
:102A700000951920019040200290002003904FF40F
:102A80008060049069462000FFF73EFF41F28832E3
:102A90001921200000F071F90600300006B070BD69
:102AA00030B585B004000025002000900C20019076
:102AB00040200290002003904FF48060049069460B
:102AC0002000FFF721FFDFF870250C21200000F027
:102AD00054F90500280005B030BDF0B585B00600FA
:102AE00014001D0000270094072001904020029050
:102AF000002003904FF48060049069463000FFF797
:102B000003FF41F288320721300000F036F9070058
:102B1000380005B0F0BD30B585B0040000250020B8
:102B200000900020019000200290002003904FF4BC
:102B30008060049069462000FFF7E6FE200000F068
:102B400001F90500280005B030BD30B585B004009E
:102B500000254FF4D570009008200190402002908D
:102B6000002003904FF48060049069462000FFF736
:102B7000CBFE200000F038FA0500280005B030BD7B
:102B800070B586B004000D00002600953720019036
:102B900040200290002003904FF48060049069462A
:102BA0002000FFF7B1FE41F288323721200000F00B
:102BB000E4F80600300006B070BD70B586B00400C1
:102BC0000D000026DFF874042843009029200190AE
:102BD00040200290002003904FF4806004906946EA
:102BE0002000FFF791FE200000F08BF90600300076
:102BF00006B070BD70B586B004000D0000260095CB
:102C00000620019040200290002003904FF4806045
:102C1000049069462000FFF777FE41F288320621D2
:102C2000200000F0AAF80600300006B070BD30B5F4
:102C300085B0040000250020009033200190402042
:102C40000290002003904FF48060049069462000B9
:102C5000FFF75AFE41F288323321200000F08DF850
:102C60000500280005B030BD30B585B00400002552
:102C70000020009002200190C020029000200390CC
:102C80004FF48060049069462000FFF73DFE20006D
:102C900000F00DF90500280005B030BD70B586B014
:102CA00004000D000026009509200190C02002902C
:102CB000002003904FF48060049069462000FFF7E5
:102CC00023FE200000F0F3F80600300006B070BDCF
:102CD00070B586B004000D0000260020009003208F
:102CE000019040200290002003904FF480600490F7
:102CF00069462000FFF708FE2A000321200000F0AB
:102D000023F90600300006B070BD70B586B004002F
:102D10000D00002600950D2001904020029000201B
:102D200003904FF48060049069462000FFF7ECFDAB
:102D300041F288320D21200000F01FF8060030001B
:102D400006B070BD0100BE480068C0084FF47A723A
:102D5000B0FBF2F041F2883202FB00F21000421E9A
:102D6000002802D15FF0004006E0486B0006F5D570
:102D700040F2FF508863002070472DE9F0410400C5
:102D80000D001600AE480068C0084FF47A71B0FB21
:102D9000F1F000FB06F84046B0F10108002802D12E
:102DA0005FF0004081E0606B10F0450FF3D0606B86
:102DB000400703D50420A063042076E0606BC007C1
:102DC00003D50120A06301206FE02000FFF7B1FDD3
:102DD0002900C9B2884201D0012066E040F2FF50CC
:102DE000A06300212000FFF7A7FD070095480742D8
:102DF00001D1002059E0002F02D55FF0007054E0AF
:102E0000780001D5402050E0B80001D580204CE08A
:102E1000F80002D54FF4807047E0380102D54FF436
:102E2000007042E0780102D54FF480603DE0F80187
:102E300002D54FF4006038E0380202D54FF48050DC
:102E400033E0780202D54FF400502EE0B80202D5EC
:102E50004FF4804029E0F80202D54FF4004024E00E
:102E6000780302D55FF400301FE0B80302D55FF4A9
:102E700080201AE0F80302D55FF4002015E0380442
:102E800002D55FF4801010E0780402D55FF40010E2
:102E90000BE0B80402D55FF4800006E0380702D5E5
:102EA0005FF4000001E05FF48030BDE8F0810100D4
:102EB00063480068C0084FF47A72B0FBF2F041F248
:102EC000883202FB00F21000421E002802D15FF09F
:102ED000004015E0486B10F0450FF4D0486B4007F8
:102EE00003D50420886304200AE0486BC00703D59B
:102EF00001208863012003E040F2FF508863002036
:102F0000704701004E480068C0084FF47A72B0FB69
:102F1000F2F041F2883202FB00F21000421E00285B
:102F200002D15FF000400EE0486B10F0450FF4D086
:102F3000486B400703D504208863042003E040F277
:102F4000FF508863002070472DE9F04104000D0018
:102F500016003B480068C0084FF47A71B0FBF1F0EE
:102F600041F2883101FB00F84046B0F10108002829
:102F700002D15FF0004035E0606B10F0450FF3D0F8
:102F8000606B400703D50420A06304202AE0606B37
:102F9000C00703D50120A063012023E02000FFF734
:102FA000C8FC2900C9B2884201D001201AE040F2D1
:102FB000FF50A06300212000FFF7BEFC070017F4BC
:102FC000604F03D1380C308000200BE0780402D52C
:102FD0004FF4005006E0380402D54FF4805001E071
:102FE0005FF48030BDE8F081010015480068C0083A
:102FF0004FF47A72B0FBF2F041F2883202FB00F239
:103000001000421E002802D15FF0004010E0486B23
:1030100010F0450FF4D0486B400703D5402088637B
:10302000042005E0486B400601D54020886300205D
:10303000704700000081FFFF00E1F50500001080EF
:103040000400002008E0FFFD31B500F00DF8040099
:10305000009D15F1010F00D06D1C00F005F8001B5C
:10306000A842FAD331BD000001480068704700BF94
:10307000CCA900207047704770470000F8B50400E5
:103080000025FFF7F1FF0600002C01D1012067E0C9
:10309000606A0028002084F83400022084F835009B
:1030A00020680068400840002168086020680068C7
:1030B000C0070BD5FFF7D8FF801B0628F6D32020CA
:1030C0006065032084F83500032049E0206800682B
:1030D0000500DFF8F00205406068A1680843E16878
:1030E00008432169084361690843A1690843E1690C
:1030F0000843216A08430543606A042803D1E06A53
:10310000216B08430543206805602068406905007D
:10311000ED08ED00606A0543606A042810D1A06ADA
:103120000543E06A00280BD0200000F055F9002884
:1031300006D040206065012084F8350001200FE0B2
:1031400020684561200000F025F907003F20E16D6F
:103150008840B86000206065012084F835000020B8
:10316000F2BD010091F83500022803D080204865A7
:10317000012009E0052081F8350008680068400852
:1031800040000A68106000207047F8B50400002075
:103190000090DFF83C0200684FF41651B0FBF1F6E6
:1031A000A76D386805000820E16D8840054211D000
:1031B0002068006840070DD52068006830F00400E2
:1031C000216808600820E16D8840B860606D50F0AB
:1031D000010060657C48E16D884005420BD02068A5
:1031E0004069000607D57848E16D8840B860606D99
:1031F00050F0020060657548E16D884005420BD0D3
:1032000020680068800707D57048E16D8840B86085
:10321000606D50F0040060651020E16D884005424B
:103220002DD020680068000729D51020E16D884066
:10323000B86020680068400311D52068006800036A
:1032400006D4206C00281AD02000216C884716E094
:10325000A06C002813D02000A16C88470FE02068E4
:103260000068C00505D42068006830F008002168B7
:103270000860206C002802D02000216C88472020A4
:10328000E16D8840054260D020680068C0065CD5CA
:103290002020E16D8840B86094F83500052828D1D9
:1032A0002068006830F016002168086020684069D6
:1032B00030F0800021684861206C002802D1A06CA9
:1032C000002805D02068006830F0080021680860F8
:1032D0003F20E16D8840B860002084F83400012070
:1032E00084F83500206D002802D02000216D884729
:1032F0004FE020680068400311D520680068000393
:1033000006D4606C002820D02000616C88471CE047
:10331000E06B002819D02000E16B884715E0206899
:103320000068C0050BD42068006830F010002168E8
:103330000860002084F83400012084F83500E06B38
:10334000002802D02000E16B8847606D002820D063
:10335000606DC00717D5052084F835002068006827
:1033600040084000216808600098401C0090864298
:1033700003D320680068C007F6D4002084F8340026
:10338000012084F83500E06C002802D02000E16CB8
:103390008847F1BD017801F0FF0110391822B1FB17
:1033A000F2F10C4A525CC265042905D30268920A04
:1033B0009202121D826503E00268920A92028265FF
:1033C000806D70473F8010F0010080000400800095
:1033D000040000201092000810B4010000208A6A46
:1033E0008B69002B16D1002A05D0022A03D008D3FE
:1033F000032A0DD00DE0CB6ADB0101D501231800B3
:1034000035E0CB6AB3F1C07F01D1012318002EE073
:103410002DE02CE08B69B3F5005F18D1002A05D0B0
:10342000022A03D005D3032A09D00FE00123180094
:103430001DE0CB6ADB0101D50123180017E0CB6A40
:10344000B3F1C07F01D10123180010E00FE0130099
:10345000002B022B02D9DB1E03D008E00123180049
:1034600005E0CB6ADB0101D501231800FFE7C0B2FC
:1034700010BC70477047000010F007024E4B1B68ED
:1034800019004FF6FF0319404C4B53EA022319432E
:10349000494B1960704748480068C0F302207047E4
:1034A000012110F01F029140454A40B2430942F801
:1034B0002310704710B440B2002808D50A01414BD0
:1034C00040B210F00F04234403F8042C03E00A0177
:1034D0003D4B40B21A5410BC704770B4030013F057
:1034E0000704D4F10706052E01D3042001E0D4F12E
:1034F0000700261D072E01D2002500E0E51E01264B
:1035000016FA00F0401E0840A8400121A940491EBB
:103510001140084370BC704710B50400601EB0F144
:10352000807F01D301200EE0601E284908600F2132
:103530005FF0FF30FFF7BEFF00202549086007203D
:1035400024490860002010BD10B504002000FFF7DA
:1035500093FF10BDF8B504000D0016000027FFF71B
:103560009AFF0700320029003800FFF7B6FF01007C
:10357000200040B2FFF79EFFF1BD10B5040020000F
:1035800040B2FFF78DFF10BD10B504002000FFF71B
:10359000C3FF10BD042806D10E49096851F004018B
:1035A0000C4A116005E00B49096831F00401094A31
:1035B00011607047000000000CED00E00000FA050B
:1035C00000E100E018ED00E000E400E014E000E0BD
:1035D00018E000E010E000E0F8B40023002400252B
:1035E00000263200102A80F0E78001269640330042
:1035F0000E681E4034009C4240F0DC804E68022E73
:1036000002D04E68122E16D1D60800EB8606366A16
:1036100035000F2612F00707FFB2BF00BE40B543CA
:103620000E6912F00707FFB2BF00BE403543D6084F
:1036300000EB860635620668350003261700FFB2E8
:103640007F00BE40B5430E7916F003061700FFB2A7
:103650007F00BE40354305604E68012E08D04E689D
:10366000022E05D04E68112E02D04E68122E19D1AE
:103670008668350003261700FFB27F00BE40B543C1
:10368000CE681700FFB27F00BE40354385604668B4
:10369000350001269640B5434E68C6F300169640A5
:1036A00035434560C668350003261700FFB27F002A
:1036B000BE40B5438E681700FFB27F00BE40354361
:1036C000C5604E68F60075D500260096414E3668F6
:1036D00056F480463F4F3E603E4E366816F48046B4
:1036E0000096009E3C4E970856F8276035000F263E
:1036F00012F00307FFB2BF00BE40B543374EB042E1
:1037000001D1002623E0364EB04201D101261EE051
:10371000344EB04201D1022619E0334EB04201D1FD
:10372000032614E0314EB04201D104260FE0304EA2
:10373000B04201D105260AE02E4EB04201D1062644
:1037400005E02D4EB04201D1072600E00826F6B272
:1037500012F00307FFB2BF00BE4035431E4E97086C
:1037600046F82750254E36683500A5434E68F603C7
:1037700000D52543214E3560214E36683500A543DE
:103780004E68B60300D525431D4E35601D4E366884
:103790003500A5434E68F60200D52543194E356025
:1037A000194E36683500A5434E68B60200D525434C
:1037B000154E3560521C15E7F1BC704702001369C5
:1037C00089B20B4202D00123180001E00023180047
:1037D000C0B270474438024008380140000002403F
:1037E0000004024000080240000C024000100240A9
:1037F0000014024000180240001C0240003C01403E
:10380000043C0140083C01400C3C014000B585B03F
:1038100000F02EF900F017F800F0ADF800F08BF88A
:1038200000F073F801207E49086068467D49142243
:10383000FFF714F80021684600F048F97A4908605B
:1038400000F03FF9FEE700B593B000200090774804
:10385000006850F08050754908607448006810F0A6
:10386000805000900098002000907148006850F44B
:1038700080406F4908606E48006810F480400090F6
:103880000098012006905FF48030079002200C9091
:103890005FF480000D9004200E90A8200F9002206D
:1038A00010900720119006A800F03EF9002803D0E0
:1038B000BD21604800F0DBF80F200190022002904B
:1038C000002003904FF4A05004904FF480500590D6
:1038D000052101A800F002FB002803D0CB215548A8
:1038E00000F0C5F800F0C2FB4FF47A71B0FBF1F0C4
:1038F000FFF74AFE0420FFF74DFE00220F215FF084
:10390000FF30FFF727FE13B000BD4B484B4908605E
:1039100000204A4948600020484988600020474903
:10392000C8600020454908610020444948610020E2
:1039300042498861704780B5002000904048006887
:1039400050F480003E4908603D48006810F4800053
:1039500000900098002207213B20FFF7FBFD3B2051
:10396000FFF70BFE002207214520FFF7F3FD45205E
:10397000FFF703FE01BD00B587B00020009030487E
:10398000006850F080002E4908602D48006810F053
:10399000800000900098002000902948006850F0B6
:1039A0000400274908602648006810F004000090D1
:1039B0000098002000902248006850F00100204943
:1039C00008601F48006810F0010000900098002077
:1039D00000901B48006850F008001949086018481A
:1039E000006810F008000090009800200090144833
:1039F000006850F00200124908601148006810F099
:103A00000200009000984FF4806001900020029026
:103A10000020039001A90B48FFF7DEFD07B000BDB1
:103A20008C8525425C910008C4A9002040380240E2
:103A30000070004068900008002C014080A7002022
:103A4000303802400000024010B5040000F0A6FB30
:103A500000F0B2FB012000F050F8FBE710B50400C5
:103A60002068B0F1804F01D100F0C0FB10BDFEE72F
:103A700080B50E48006850F400700C4908600B488F
:103A8000006850F48060094908600848006850F4F4
:103A90008070064908600320FFF756FD002000F003
:103AA000ADFBFEF7D9FD002002BD0000003C024046
:103AB0000100002009B2842902D009B2CA1C1018E2
:103AC000704780B500F00DFD002002BD3EB504003A
:103AD0000D00B4F90800FFF7EBFF02A90191009077
:103AE0002B00226992B22168606800F0D1FB0128A6
:103AF00001D0002000E002983EBD38B5040001204E
:103B0000B4FBF0F5002D01D0280000E0012000F00A
:103B1000C1FC002032BD80B500F014FF012801D0A7
:103B200001F063F801BD000070B582B0040000250B
:103B30002078C00768D5DFF87803006810F00C0023
:103B400004280BD0DFF86803006810F00C00082888
:103B50000ED1DFF860030068400209D5DFF8580392
:103B60000068800350D5606800284DD101209EE197
:103B70006068B0F5803F08D1DFF83C03006850F47E
:103B80008030DFF8341308601FE06068B0F5A02FC4
:103B90000FD1DFF82403006850F48020DFF81813F9
:103BA0000860DFF81403006850F48030C2490860F0
:103BB0000BE0C148006830F48030BF490860BE485F
:103BC000006830F48020BC490860606800280DD08F
:103BD000FFF74AFA0500B8480068800314D4FFF7DD
:103BE00043FA401B6528F6D3032060E1FFF73CFA57
:103BF0000500B1480068800306D5FFF735FA401B81
:103C00006528F6D3032052E1207880075AD5A848CA
:103C1000006810F00C0F09D0A548006810F00C00E7
:103C200008281BD1A3480068400217D4A2480068A6
:103C3000800704D5E068012801D0012037E19E48C3
:103C400000685FF0F851B1FA81F130F0F8002269B4
:103C500012FA01F108439849086033E0E06800284F
:103C60001FD0012095490860FFF7FEF90500924832
:103C70000068800706D4FFF7F7F9401B0328F6D346
:103C8000032014E18C4800685FF0F851B1FA81F12B
:103C900030F0F800226912FA01F108438649086001
:103CA00010E0002085490860FFF7DEF90500824832
:103CB0000068800706D5FFF7D7F9401B0328F6D325
:103CC0000320F4E02078000724D56069002810D094
:103CD00001207B490860FFF7C7F9050079480068B3
:103CE000800717D4FFF7C0F9401B0328F6D3032041
:103CF000DDE0002072490860FFF7B6F90500714861
:103D00000068800706D5FFF7AFF9401B0328F6D3FC
:103D10000320CCE0207840076AD5002000906A4854
:103D2000006850F08050684908606748006810F0EB
:103D30008050009000986548006850F48070634996
:103D40000860FFF791F9050060480068C00506D4D7
:103D5000FFF78AF9401B0328F6D30320A7E0A068E9
:103D6000012806D15A48006850F0010058490860FF
:103D70001BE0A06805280CD15548006850F00400ED
:103D8000534908605248006850F0010050490860EB
:103D90000BE04F480068400840004D4908604C481F
:103DA000006830F004004A490860A06800280FD07D
:103DB000FFF75AF9050046480068800718D4FFF756
:103DC00053F9401B41F289318842F4D303206EE05D
:103DD000FFF74AF905003E480068800708D5FFF75D
:103DE00043F9401B41F289318842F4D303205EE05D
:103DF000A06900285AD02E48006810F00C0008284E
:103E000052D0A06902283ED1002032490860FFF755
:103E10002BF9050028480068800106D5FFF724F932
:103E2000401B0328F6D3032041E02B48B0FA80F270
:103E30004FF44040B0FA80F0F021B1FA81F1E3692B
:103E4000266A3343666A16FA02F21A43A36A5B08CB
:103E50005B1E13FA00F01043E26A12FA01F1084304
:103E60001449086001201B490860FFF7FDF80500B0
:103E700011480068800119D4FFF7F6F8401B0328A9
:103E8000F6D3032013E0002012490860FFF7ECF896
:103E9000050009480068800108D5FFF7E5F8401BD8
:103EA0000328F6D3032002E0012000E0002076BDC5
:103EB00008380240043802400038024000004742FF
:103EC000800E474274380240403802400070004083
:103ED00070380240600047420000FE0370B50400E5
:103EE0000D0000267948006810F00F00A84209D2A2
:103EF000764805707548006810F00F00A84201D0A0
:103F00000120B2E02078800707D57148006830F0C2
:103F1000F000A16808436E4908602078C00769D5A1
:103F20006068012805D16B480068800313D4012024
:103F30009BE06068022802D06068032805D16548CC
:103F40000068800107D401208FE062480068800784
:103F500001D4012089E05E48006880088000616823
:103F600008435B490860FFF77FF806006068012896
:103F70000ED15748006810F00C0004283AD0FFF723
:103F800073F8801B41F289318842F2D303206CE040
:103F9000606802280ED14E48006810F00C00082816
:103FA00028D0FFF761F8801B41F289318842F2D3B3
:103FB00003205AE0606803280ED14548006810F0DD
:103FC0000C000C2816D0FFF74FF8801B41F2893106
:103FD0008842F2D3032048E03D48006810F00C0FFF
:103FE00008D0FFF741F8801B41F289318842F3D3B2
:103FF00003203AE03548006810F00F00854209D2EE
:10400000324805703148006810F00F00A84201D016
:1040100001202AE02078400707D52D48006830F4B9
:10402000E050E16808432A4908602078000708D575
:104030002748006830F46040216950EAC1002449F3
:10404000086000F04FF822490968234A11F0F00196
:104050005FF07063B3FA83F3D940515CC8401F49E5
:104060000860002000F0CAF8002070BD1B480068FE
:10407000704780B5FFF7FAFF15490968184A11F42F
:10408000E0515FF46013B3FA83F3D940515CC84048
:1040900002BD0F2202600E4A126812F00302426053
:1040A0000B4A126812F0F0028260094A126812F498
:1040B000E052C260064A1268D20812F4E05202616D
:1040C000024A126812F00F020A607047003C024078
:1040D0000838024000380240AC910008040000207B
:1040E0001892000870B40021002200230020264C02
:1040F000246814F00C04002C04D0042C05D0082CE7
:1041000006D03DE0214C20003CE0214C200039E06D
:10411000204C246814F03F0421001E4C24686402E3
:104120000FD51C4C24681A4DB5FBF1F547F6C07647
:104130003440194EB6FA86F6F44004FB05F422002A
:104140000EE0144C2468114DB5FBF1F547F6C0762E
:104150003440114EB6FA86F6F44004FB05F4220012
:104160000C4C246814F440344FF44045B5FA85F5FE
:10417000EC40641C64002300B2FBF3F4200001E077
:10418000024C200070BC7047083802400024F40044
:1041900000127A00043802400000FE0380B5034993
:1041A000034800F08BFD0349087001BDB0A9002051
:1041B0007091000810AA002080B500220749084825
:1041C00000F088FD0749064800F0A0FD06490448B4
:1041D00001F040F8024800F0A6FD01BD08000020F3
:1041E000F8A000203C000020E00000200248006809
:1041F000401C014908607047CCA9002070B588B008
:10420000040000250026002221001C20FFF7A2F94F
:104210001C20FFF7B2F9002000901A48006850F007
:104220000100184908601748006810F0010000906C
:10423000009801A902A8FFF72CFFFFF71AFF400022
:1042400005001148B5FBF0F0401E06005FF080400D
:104250000E49086040F2E7300C49C8600B484660E0
:1042600000200A490861002008498860074800F0DA
:10427000F9FF002803D1054801F010F800E0012003
:1042800008B070BD4038024040420F00C4A8002072
:104290002DE9F04F85B004000D0016001F00DDF879
:1042A0003880DDF83C90B6B2B00001F04DF983469D
:1042B000BBF1000F0DD0542001F046F98246BAF14F
:1042C000000F02D0CAF830B005E0584601F0C9F935
:1042D00001E000208246BAF1000F14D000200390C4
:1042E000CDF808A0CDF80490CDF800803B00B6B220
:1042F00032002900200000F00DF8504600F06EF862
:104300000120049002E05FF0FF300490049805B0B3
:10431000BDE8F08F2DE9F14F0C0015001E000A9F3B
:10432000DDF82C80DDF83090D9F8300000EB850006
:10433000001F82465FEADA0A5FEACA0A1AF007003B
:10434000002807D0502080F31188BFF34F8FBFF3B0
:104350006F8FFEE700208346BBF1100F0CD214F8DC
:104360000B0009EB0B0181F8340014F80B00002856
:1043700002D01BF1010BEFE7002089F84300072F63
:1043800001D306200700C9F82C70C9F8447000203A
:10439000C9F8480019F1040001F027FA19F11800D2
:1043A00001F023FAC9F81090D7F10700C9F81800F6
:1043B000C9F824900020C9F84C00002089F850006A
:1043C00032000099504600F04BFBC9F80000B8F1EC
:1043D000000F01D0C8F80090BDE8F18F10B50400BF
:1043E00000F0CDFBDFF818040068401CDFF8101463
:1043F0000860DFF81004006800280AD1DFF8040420
:104400000460DFF8FC030068012811D100F014FA01
:104410000EE0DFF8F4030068002809D1E06ADFF855
:10442000E4130968C96A884202D3DFF8D80304603C
:10443000DFF8D8030068401CDFF8D0130860DFF80D
:10444000F40300680121E26A91400843DFF8E413B5
:104450000860211DDFF83804E26A14235A4310442F
:1044600001F0C6F900F0A8FBDFF89C030068002803
:104470000FD0DFF890030068C06AE16A884208D272
:104480005FF08050DFF8E4140860BFF34F8FBFF394
:104490006F8F10BD38B504000025002C15D0DFF853
:1044A000A0040068002807D0502080F31188BFF3D3
:1044B0004F8FBFF36F8FFEE700F047F80021200019
:1044C00000F06CFA00F049F80500002D08D15FF00B
:1044D0008050DFF8A0140860BFF34F8FBFF36F8FD9
:1044E00031BD1CB5DFF8940401900020009000233A
:1044F0008022DFF88C140FF21930FFF7C9FE040098
:10450000012C16D1502080F31188BFF34F8FBFF3D9
:104510006F8F5FF0FF30DFF86C1408600120DFF868
:10452000E81208600020DFF86414086000F0C1FAA7
:104530000AE014F1010F07D1502080F31188BFF376
:104540004F8FBFF36F8FFEE713BDDFF8F4030068F2
:10455000401CDFF8EC130860704770B5002400259C
:10456000DFF8DC030068002807D1502080F31188B1
:10457000BFF34F8FBFF36F8FFEE700F000FBDFF854
:10458000C0030068401EDFF8B8130860DFF8B0030E
:10459000006800285CD1DFF868020068002857D066
:1045A000DFF8D403006800282AD0DFF8CC03C06805
:1045B000C068040014F1180001F043F9201D01F057
:1045C00040F9DFF8700200680121E26A9140084377
:1045D000DFF860120860211DDFF8B402E26A1423DC
:1045E0005A43104401F004F9E06ADFF81812096830
:1045F000C96A8842D4D30120DFF824140860CFE7C9
:10460000002C01D000F084F9DFF87C030668002E4E
:104610000ED000F021F8002803D00120DFF80014AC
:104620000860761E002EF4D10020DFF85C130860CD
:10463000DFF8EC03006800280AD0012005005FF0D5
:104640008050DFF830130860BFF34F8FBFF36F8FD8
:1046500000F0B2FA280070BD2DE9F0410026DFF825
:10466000E0020068002840F07F80DFF82003006847
:10467000471CDFF818030760002F24D1DFF8100370
:1046800000680068002807D0502080F31188BFF32D
:104690004F8FBFF36F8FFEE7DFF8F40200688046AC
:1046A000DFF8F0020068DFF8E8120860DFF8E402E3
:1046B000C0F80080DFF8E0020068401CDFF8D81284
:1046C000086000F025F9DFF8BC02006887423ED39D
:1046D000DFF8BC0200680068002805D15FF0FF30F9
:1046E000DFF8A012086032E0DFF8A4020068C068BA
:1046F000C068040060680500AF4203D2DFF884029E
:10470000056024E0201D01F09CF8A06A002803D079
:1047100014F1180001F095F8DFF818010068012184
:10472000E26A9140084343490860211DDFF86001B7
:10473000E26A14235A43104401F05AF8E06A3149FE
:104740000968C96A8842C3D301200600C0E7DFF8C0
:1047500040012C490968C96A142251434058022873
:1047600009D30120060006E0DFF81C020068401CA7
:10477000DFF814120860DFF8A8020068002801D0F2
:10478000012006003000BDE8F081DFF8B4010068C8
:10479000002804D00120DFF8881208602EE00020F5
:1047A000DFF87C12086023490968B1FA81F1D1F180
:1047B0001F0108003649142202FB00F28958002923
:1047C00007D1502181F31188BFF34F8FBFF36F8F53
:1047D000FEE72F4A142303FB00F31A4411004A6832
:1047E00052684A604A6811F108039A4202D14A6845
:1047F00052684A604968C968024A116070470000FF
:10480000E0A90020D0A90020ECA90020FCA90020EC
:1048100010B5040000F040F81D4800680228F9D3E4
:104820005FF08050DFF808120860BFF34F8FBFF3CE
:104830006F8FEFE7E8A9002010B500200400072CD7
:1048400008D21348142101FB04F1084400F0BEFF14
:10485000641CF4E7DFF8DC0100F0B8FFDFF8D801F2
:1048600000F0B4FFDFF8100100F0B0FF094800F0DD
:10487000ADFF3F4800F0AAFFDFF8B801DFF81011E4
:104880000860DFF8B401DFF8B411086010BD000063
:10489000F4A6002074A9002038B5DFF8A401006850
:1048A00000282BD0FFF751FEDFF8980100680028A0
:1048B00001D1012400E00024FFF74FFE002CECD1D1
:1048C00000F05DF9DFF87C01C068C0680500281DB4
:1048D00000F0B7FFDFF850010068401EDFF8481114
:1048E0000860DFF85C010068401EDFF854110860C2
:1048F00000F062F9280000F002F8CEE731BD10B5F3
:104900000400206B00F0ADFE200000F0AAFE10BDF8
:10491000DFF87C1009680968002905D15FF0FF31D4
:10492000DFF86020116009E0DFF864100968C968E9
:10493000C96808004168DFF84C201160704700002A
:1049400008AA0020DFF800110968002902D101211E
:10495000080009E0DFF8F4100968002902D10221FB
:10496000080001E0002108007047000004ED00E0AD
:1049700088A9002004ED00E060A9002004AA00201E
:104980002092000800AA0020F0A90020E4A900203D
:10499000D4A90020D8A90020F8A90020F8B5040067
:1049A0000D002048076821480068001D00F049FFFD
:1049B00000280BD11D480068254909680122C06AFA
:1049C00012FA00F031EA00002149086014F1010FE9
:1049D00008D1002D06D015480068011D1D4800F0C3
:1049E00007FF1BE0E0190600104800684660BE4261
:1049F00007D20E480068011D1048006800F004FF4F
:104A00000CE00A480068011D1348006800F0FCFE35
:104A100012480068864201D210480660F1BD0000CD
:104A2000F4A90020E4A90020E0A90020D0A90020DA
:104A300004ED00E038A900204CA90020D8A90020EE
:104A4000DCA9002074A90020ECA9002008AA0020FD
:104A5000E8A9002088A90020D4A9002000AA0020ED
:104A6000001F5FF080730360001F4B085B00036052
:104A7000001F0FF21503036014380260001F7FF05F
:104A800002030360203870476248006810F1010F8C
:104A900007D0502080F31188BFF34F8FBFF36F8F83
:104AA000FEE7502080F31188BFF34F8FBFF36F8F65
:104AB000FEE700B583B0584800685849884207D1DE
:104AC000502080F31188BFF34F8FBFF36F8FFEE745
:104AD000514800685249884207D1502080F311881C
:104AE000BFF34F8FBFF36F8FFEE74E480178019100
:104AF000FF21017001788DF800109DF8001011F071
:104B00005001494A11700721484A11609DF8001070
:104B100009060AD545490968491E444A11609DF8AD
:104B2000001049008DF80010F0E7404909680902BB
:104B30003E4A11603D49096811F4E0613B4A116049
:104B4000019901703A48006850F4700038490860D3
:104B50003748006850F070403549086000F06EF842
:104B600000202C49086000F0C7FE3248006850F071
:104B700040403049086000F0B3FE00200EBD5020D8
:104B800080F31188BFF34F8FBFF36F8F2148006808
:104B9000401C204908601F48006801280BD12648A6
:104BA0000068000607D0502080F31188BFF34F8FB4
:104BB000BFF36F8FFEE7704716480068002807D1E3
:104BC000502080F31188BFF34F8FBFF36F8FFEE744
:104BD00010480068401E0F4908600E480068002811
:104BE00002D1002080F31188704780B5502080F3F7
:104BF0001188BFF34F8FBFF36F8FFFF72DFD002894
:104C000003D05FF080500C490860002080F31188C9
:104C100001BD00000000002000ED00E071C20F4166
:104C200070C20F4100E400E011AA0020C8A90020D2
:104C300020ED00E034EF00E004ED00E006480068FD
:104C40004FF47A71B0FBF1F0401E04490860072070
:104C500003490860704700BF0400002014E000E032
:104C600010E000E0F0B4030001200024184D6D7A3C
:104C7000022D20DA0025164E154F7F7AF555144D7A
:104C8000134E767A05EB86056B60114D104E767AE1
:104C900035442A720E4D6D7A6E1C0D4F7E722C00BB
:104CA00014F130050D703A254D702F258D700025BB
:104CB000CD7000252800C0B2F0BC704738B50400A4
:104CC0000D00002229002000FFF7CCFF32BD0000BC
:104CD0009CA9002070B504000D001600002C01D125
:104CE000022012E0D4F81402002802D00020C4F8F8
:104CF0001402002D01D0C4F81052012084F8FC01E8
:104D00002670200000F0CCFE002070BD02000020C4
:104D1000002904D0C2F814120023180001E0022375
:104D20001800C0B2704710B50400200000F00CFF5E
:104D3000002010BD01000020704770B504000D0078
:104D40000226D4F8140200280AD02900C9B2200093
:104D5000D4F8142212689047002801D100200600E0
:104D60003000C0B270BD38B504000D002900C9B2D2
:104D70002000D4F8142252689047002032BD38B584
:104D800004000D0029004FF40270204401F05EFB86
:104D90000120C4F8F401B4F80E02C4F8F80194F844
:104DA000080210F01F00C0B2002803D0022811D062
:104DB00008D317E04FF4027004EB0001200001F06B
:104DC00061F816E04FF4027004EB0001200001F0DE
:104DD00097F80EE04FF4027004EB0001200001F0A0
:104DE000B5F806E094F8080210F08001200000F009
:104DF0004EFF002032BDF8B504000D001600EDB2E4
:104E0000002D2ED14FF4827020440700D4F8F40115
:104E1000032836D1F868B968884210D2B868F968B2
:104E2000401AB860B868F968884201D2BA6800E0F0
:104E3000FA6892B23100200001F076FB21E0D4F84C
:104E400014020069002808D094F8FC01032804D15A
:104E50002000D4F8141209698847200001F071FB82
:104E60000FE0D4F81402806900280AD094F8FC01FD
:104E7000032806D12900C9B22000D4F8142292696F
:104E800090470020F2BDF8B504000D001600EDB209
:104E9000002D57D114F114000700D4F8F4010228B2
:104EA00045D1F868B968884210D2B868F968401AE4
:104EB000B860BA6892B23100200001F028FB0023EC
:104EC00000220021200000F09FFF30E07868F968A0
:104ED000B0FBF1F201FB1200002817D17868F968E5
:104EE000884213D37868D4F8F81188420ED2002291
:104EF0000021200001F00BFB0020C4F8F801002382
:104F000000220021200000F07FFF10E0D4F81402FE
:104F1000C068002808D094F8FC01032804D12000C0
:104F2000D4F81412C9688847200001F017FB94F8E0
:104F30000002012816D12000FFF7FCFE002084F8B3
:104F400000020FE0D4F81402406900280AD094F857
:104F5000FC01032806D12900C9B22000D4F814228C
:104F6000526990470020F2BD10B504004023002292
:104F70000021200000F00BFE4020C4F81001402367
:104F800000228021200000F002FE4020206201204B
:104F900084F8FC01D4F81802002806D06168C9B270
:104FA0002000D4F8142252689047002010BD02005F
:104FB000117400207047010091F8FC0181F8FD0197
:104FC000042081F8FC0100207047010091F8FD01E8
:104FD00081F8FC010020704710B5040094F8FC0132
:104FE000032809D1D4F81402C069002804D0200095
:104FF000D4F81412C9698847002010BD02000020AF
:10500000704702000020704701000020704710B573
:105010000400012084F8FC016168C9B22000D4F8C2
:10502000142252689047002010BD000070B50400A3
:105030000D000026207C00280ED14FF400730222C0
:105040000121200000F0A3FD4FF400730222812112
:10505000200000F09CFD0BE04023022201212000F3
:1050600000F095FD402302228121200000F08FFDF9
:1050700041F26C00FBF716FFC4F81802D4F81802CE
:10508000002802D10120060004E0200001F074FA9B
:10509000002006003000C0B270BD38B504000D001D
:1050A0000121200000F0A7FD8121200000F0A3FDD8
:1050B000200001F09AFAD4F81802002806D0D4F89B
:1050C0001802FCF74AF80020C4F81802002032BD8C
:1050D00070B504000D00D4F81862287810F0600054
:1050E000C0B200283CD0202840F082806878FE289A
:1050F00002D0FF281AD02CE06888002810D1E88858
:1051000001280DD1287800060AD5D4F81C02806940
:105110008047306001223100200001F0E4F91EE0F8
:105120002900200001F0A6F9022062E0688800282A
:1051300009D1E888002806D12878000603D4200089
:1051400001F041FA0BE02900200001F093F9022060
:105150004FE02900200001F08DF9022049E047E0EE
:10516000687801280DD00A2802D00B2806D03EE02E
:105170000122311D200001F0B6F938E0A8787060F6
:1051800035E0A988C9B2200000F05BFDA988C9B24A
:10519000200000F030FD2879C0B2000611D5207C37
:1051A000002807D14FF4007302228121200000F073
:1051B000EEFC17E0402302228121200000F0E7FCF2
:1051C00010E0207C002807D14FF400730222012157
:1051D000200000F0DCFC05E0402302220121200039
:1051E00000F0D5FCA988C9B2200001F025FBFFE73B
:1051F000002070BD38B504000D002900C9B22000A0
:1052000001F0F8F9002032BD38B504000D00290086
:10521000C9B2200001F011FA002032BD01002020A7
:105220000880084870470100202008800648704721
:105230000100202008800548704701000A200880EE
:10524000034870477400002094000020B400002040
:10525000D40000200200002901D0C2F81C12002056
:105260007047000010B50400002C01D1012014E0AB
:1052700094F83900002805D1002084F83800200077
:1052800000F060F9022084F83900211D206800F048
:10529000CFF8012084F83900002010BD0100086813
:1052A000C06850F001000A68D0600868006850F0DB
:1052B00001000A6810600020704710B504002068E3
:1052C000006980071AD52068C068800716D57FF06E
:1052D000020021680861012020762068806910F0B2
:1052E000030F03D0200001F0C1FA05E0200001F017
:1052F000BEFA200001F0BCFA002020762068006988
:1053000040071AD52068C068400716D57FF0040012
:1053100021680861022020762068806910F4407FAF
:1053200003D0200001F0A2FA05E0200001F09FFA6E
:10533000200001F09DFA0020207620680069000717
:105340001AD52068C068000716D57FF008002168CC
:105350000861042020762068C06910F0030F03D094
:10536000200001F083FA05E0200001F080FA20001F
:1053700001F07EFA0020207620680069C0061AD568
:105380002068C068C00616D57FF01000216808614B
:10539000082020762068C06910F4407F03D02000E8
:1053A00001F064FA05E0200001F061FA200001F04C
:1053B0005FFA0020207620680069C0070AD52068BF
:1053C000C068C00706D57FF0010021680861200091
:1053D000FEF744FB2068006900060AD52068C06813
:1053E000000606D57FF0800021680861200001F0EA
:1053F00040FA2068006940060AD52068C068400667
:1054000006D57FF0400021680861200001F032FAE3
:105410002068006980060AD52068C068800606D525
:105420007FF0200021680861200001F024FA10BDFF
:10543000002203681A00DFF8E030984212D0B0F181
:10544000804F0FD0DFF8D43098420BD0DFF8D03047
:10545000984207D0DFF8CC30984203D0DFF8C8304C
:10546000984201D1012300E00023DBB2002B03D0DE
:1054700032F070024B681A43DFF89C3098422AD011
:10548000B0F1804F27D0DFF89430984223D0DFF876
:10549000903098421FD0DFF88C3098421BD0DFF854
:1054A0008830984217D0DFF88430984213D0DFF864
:1054B000803098420FD0DFF87C3098420BD0DFF874
:1054C0007830984207D0DFF87430984203D0DFF884
:1054D0007030984201D1012300E00023DBB2002BA1
:1054E00003D032F44072CB681A4302608B68C36207
:1054F0000B688362084B984202D00B4B984201D153
:10550000012300E00023DBB2002B01D00B69036311
:105510000123436170470000000001400004004087
:1055200000080040000C0040000401400040014021
:10553000004401400048014000180040001C0040A9
:1055400000200040704700002DE9F04104005FF0AA
:105550000008FEF7FAFF96480068002801D100F025
:10556000BDF89448006804426AD1002C15D09248D6
:105570000068041914F0070F0FD014F1080014F09C
:105580000701441A14F0070F07D0502080F3118848
:10559000BFF34F8FBFF36F8FFEE7002C50D08748CB
:1055A0000068A0424CD38648060085480068050084
:1055B0006868A04205D22868002802D02E002D6815
:1055C000F6E77B48006885423AD030687A49096836
:1055D0000844804628683060774800684000696861
:1055E000091B884215D205EB0400070017F00700DD
:1055F000002807D0502080F31188BFF34F8FBFF3EE
:105600006F8FFEE76868001B78606C60380000F000
:105610009CF86A4800686968401A684908606748E9
:10562000006868490968884203D26448006865498F
:10563000086068685F49096808436860002028605E
:10564000FEF78BFF18F00700002807D0502080F3EA
:105650001188BFF34F8FBFF36F8FFEE74046BDE861
:10566000F08170B504002600002C36D05248006846
:1056700040420644350068684E490968084207D12F
:10568000502080F31188BFF34F8FBFF36F8FFEE779
:105690002868002807D0502080F31188BFF34F8F6F
:1056A000BFF36F8FFEE7686842490968084214D06B
:1056B0002868002811D168683E49096888436860F5
:1056C000FEF743FF3D480068696808183B490860D9
:1056D000280000F03AF8FEF740FF70BD30B44FF4F8
:1056E0007053394C220012F0070F05D0D21DD2089A
:1056F000D2009B1A344CE3181100314C2160002475
:105700002F4D6C605C1822002B4C2468121BD208B1
:10571000D200274C22600024254D2D686C600024A7
:10572000234D2D682C600800141A4460204C246816
:1057300004604468234D2C604468204D2C605FF069
:1057400000441C4D2C6030BC704710B41C4B1A0038
:105750001368834201D21268FAE7110053680B44C0
:10576000834204D153684468E31853601000010079
:1057700043680B441468A34211D113680C4C24688D
:10578000A34208D0436814686468E3184360136850
:105790001B68036005E0064B1B68036001E01368AB
:1057A0000360824200D0106010BC7047000000000F
:1057B000B4A90020C0A9002040920008B8A9002088
:1057C000A8A90020BCA900200861002010F1080150
:1057D00041605FF0FF31816010F10801C16010F19C
:1057E00008010161002101607047002101617047DB
:1057F00042684A6093688B60936859609160086161
:1058000003685B1C0360704710B40B6813F1010F51
:1058100002D10469220008E010F108042200546853
:105820002468A34201D35268F9E754684C604C687D
:10583000A1608A60516008610468641C046010BC47
:105840007047010008698A684B689A604A688B68EB
:105850005A6042688A4201D18A68426000220A6125
:105860000268521E0260006870470000EFF3098072
:10587000BFF36F8F244B1A681EF0100F08BF20ED86
:10588000108A20E9F04F106008B44FF0500080F308
:105890001188BFF34F8FBFF36F8FFEF776FF4FF086
:1058A000000080F3118808BC19680868B0E8F04F60
:1058B0001EF0100F08BFB0EC108A80F30988BFF308
:1058C0006F8F7047104B19680868B0E8F04F80F38D
:1058D0000988BFF36F8F4FF0000080F31188704785
:1058E0000A480068006880F3088862B661B6BFF3B2
:1058F0004F8FBFF36F8F00DFDFF81400016841F4B2
:105900007001016070470000D0A9002008ED00E0A0
:1059100088ED00E010B586B004002068B0F1A04F1B
:105920002AD14FF4C0500190022002900020039031
:10593000032004900A20059001A97D48FDF74CFE44
:105940007C48006850F080007A4908600020009090
:105950007948006850F480407749086076480068CC
:1059600010F4804000900098002208214320FDF7A9
:10597000F1FD4320FDF701FE06B010BD10B5040097
:105980004FF46F7004EB0001D4F8EC03FFF7F7F964
:1059900010BD38B504000D00EDB21C2000FB05F071
:1059A0002044D0F804222900C9B2D4F8EC03FFF750
:1059B00022FA31BD38B504000D00EDB21C2000FB09
:1059C00005F02044426C2900C9B2D4F8EC03FFF77B
:1059D0005AFA31BD10B50400D4F8EC03FFF7FCFA15
:1059E00010BD38B504000125E068002802D0022867
:1059F00003D005E00020050004E00120050001E0DF
:105A0000012005002900C9B2D4F8EC03FFF7CFFA52
:105A1000D4F8EC03FFF7A8FA31BD10B50400D4F8B0
:105A2000EC03FFF7C8FA206810F56060006850F0DA
:105A30000100216811F560610860206A002805D026
:105A40003E48006850F006003C49086010BD10B5A3
:105A50000400D4F8EC03FFF7B8FA10BD38B5040021
:105A60000D002900C9B2D4F8EC03FFF7CAFA31BD22
:105A700038B504000D002900C9B2D4F8EC03FFF7D3
:105A8000BDFA31BD10B50400D4F8EC03FFF7BCFA41
:105A900010BD10B50400D4F8EC03FFF7B8FA10BD40
:105AA00010B50400207800283FD12548C0F8EC4309
:105AB0002348C4F820025FF0A04021490860042078
:105AC0001F49486002201E49C86000201C49086127
:105AD00000201B49486102201949886100201849AB
