:020000040800F2
:1000000000410020397B0008B5780008B778000867
:10001000B9780008BB780008BD780008000000002F
:10002000000000000000000000000000BF78000891
:10003000C178000800000000C3780008C5780008F7
:10004000817B0008857B0008897B00088D7B000888
:10005000917B0008957B0008997B00089D7B000838
:10006000A17B0008A57B0008A97B0008AD7B0008E8
:10007000B17B0008B57B0008B97B0008BD7B000898
:10008000C17B0008C57B0008C97B0008CD7B000848
:10009000D17B0008D57B0008D97B0008DD7B0008F8
:1000A000E17B0008E57B0008E97B0008ED7B0008A8
:1000B000F17B0008F57B0008F97B0008FD7B000858
:1000C000017C0008057C0008097C00080D7C000804
:1000D000117C0008157C0008197C00081D7C0008B4
:1000E000217C0008257C0008297C00082D7C000864
:1000F000317C0008357C0008397C00083D7C000814
:10010000417C0008D1780008457C0008497C000843
:100110004D7C0008517C0008557C0008597C000883
:100120005D7C0008617C0008657C0008DB780008C5
:10013000697C000800000000000000006D7C0008E1
:10014000717C0008757C0008797C0008E57800085F
:100150007D7C0008EF780008817C0008857C000821
:10016000897C00088D7C0008917C0008957C000843
:10017000997C00089D7C0008000000000000000041
:10018000A17C0008A57C00084FF4E07210440268CE
:10019000914203D343681A44914202D380680028F5
:1001A000F5D17047DFF85C07016891B94FF48031F1
:1001B00081604FF4805141604FF0FF31C1600161B7
:1001C0000421DFF844274161C2F8BC11DFF83C1775
:1001D00001600120704701F1080313F0070305D007
:1001E00001F10803C3F1080303F007031944D21A0D
:1001F0008161C26042F001034B60114428234B60CF
:10020000DFF800170969C16170472DE9F84F06460C
:1002100001F1080010F0070008BF884607D001F17F
:100220000800C0F1080000F0070001EB000802F12F
:10023000080010F0070006D002F10800C0F1080025
:1002400000F0070002441546A5EB0800A0EB0309E7
:1002500008EB030B43F00300C8F80400AB4528BFCC
:1002600001F00CFA2879C00758BF01F007FAB9F17C
:10027000100F38BF01F002FAB069854209D1F06869
:100280004844F060C6F818B040F00100CBF8040014
:1002900070E1706985420BD1B0684844B060C6F81F
:1002A00014B040F00101CBF804104BF8000061E1FC
:1002B000686800F00301012940F0AF80C008C00069
:1002C0000190C00820283BD2D5F808A0EF68009024
:1002D000BD4208BF01F0D2F9554508BF01F0CEF983
:1002E00068680099C008C000B0EBC10F18BF01F0EA
:1002F000C5F9009806EBC00000F128018A4508D036
:1003000031698A45C0F08480DAF80C10A94240F0C7
:100310007F80574506D1009A30680121914088437B
:10032000306077E02830874205D0306987426FD34C
:10033000B868A8426CD1CAF80C70C7F808A069E088
:10034000EF68D5F818A0AF420CD0A8683169884290
:1003500023D3C168A94204BFB968A9421DD1C760AF
:10036000B8601CE005F11400076837B905F110000A
:100370000768A7B101E00846076807F114010A6899
:10038000002A02BF07F110010A68002AF3D131697F
:10039000884202D30021016001E001F06FF9BAF157
:1003A000000F37D0E86906EB80004FF498710844DD
:1003B00001688D4208D10760A7B9EA697068012118
:1003C00091408843706025E03069824508D3DAF8AF
:1003D0001000A84214BFCAF81470CAF8107001E0E7
:1003E00001F04CF9B7B13069874211D3C7F818A0B2
:1003F000296929B1814226BF39618F6101F03EF937
:10040000686938B13169884202D37861876101E057
:1004100001F034F9019805448144686840084000BF
:1004200068604FEAD90549F00100CBF804004BF8A9
:100430000990202D23D206EBC50000F12807BA460B
:10044000B9F1100F38BF01F019F9306820FA05F141
:10045000C90704D40121A9400843306006E0B86808
:10046000316988422CBF824601F008F9C7F808B00C
:10047000CAF80CB0CBF808A0CBF80C707AE05FEAB1
:10048000192108BF002023D0B1F5803F28BF1F20CD
:100490001ED2A1F58070000C00F008008140A1F58B
:1004A0008052120C02F004029140A1F580431B0C13
:1004B000C0F10E0003F00203801AC01A994000EB4D
:1004C000D130C11D29FA01F202F0010101EB400017
:1004D00006EB80014FF498721144CBF81C00002207
:1004E000CBF81420CBF81020726822FA00F3DB0757
:1004F00007D4012303FA00F010437060C1F800B084
:100500001DE009681F281DBF4008C0F1190009FA45
:1005100000F0484600E011464A68D208D2004A4539
:1005200014D0C20F01EB820202F1100340001A68DE
:10053000002AF0D1306983421AD3C3F800B0CBF857
:100540001810CBF80CB0CBF808B013E0326988680B
:10055000914228BF90420BD3C0F80CB0C1F808B04C
:10056000CBF80800CBF80C100020CBF8180001E005
:1005700001F084F808F10800BDE8E68F2DE9FA4D96
:100580000546DFF88003006882B008B9FFF70AFE6D
:10059000DFF870030299806841182F31401E21EA6C
:1005A00000000299814280F0A9814FF4D8716E1841
:1005B000B16839B132688018824280F09F818142EF
:1005C000C0F09C8101F05EF800281EBF0446D0F800
:1005D000008014F1010F00F091813068716840448F
:1005E0008142306038BF01467160A86980BB2869CC
:1005F00008B1844200D22C610020F0613461C6F859
:10060000148005F12801BF48006868624FF0FF3090
:1006100028620020C960896001F108024A610A610C
:10062000801C10312028F5D3B748854203D1A8F1AA
:10063000280221462AE055F8040CC00805EBC0004A
:10064000A0F1080104EB0800401AA0F128021DE007
:100650004FF4E0702918084600E08068D0B10268C5
:1006600043681A449442F8D1027B120712D4AA6953
:1006700003689A420ED347683B449A420AD208EB79
:1006800007014160E868A96908EB00022846FFF706
:10069000A2FD1DE128698442084638BF2C6104EBA5
:1006A000080100E0806880B102688A42FAD1017BCB
:1006B00009070AD404604168414441602146029B15
:1006C000284604B0BDE8F04D9FE5AF69394628469D
:1006D000FFF75AFD4FF0000B016840680844019095
:1006E000273810F0070101990EBF0020C0F1080063
:1006F00000F0070008442F3807F11001884234BF8A
:1007000000970090009804F1080100F1180A11F018
:100710000701A8F1280005D004F10801C1F1080182
:1007200001F00701401A2144A961E86040F001028C
:100730004A6008442822426072480069E8610098D3
:10074000083010F0070018BF00F098FF00991B2038
:1007500048604FF4E0712944B1E80C50009808302B
:10076000A0E80C503461C6F81480C6F81CB000989C
:100770000830B061019801E00AF1040A0721CAF8C3
:1007800004100BF1010B0AF108018142F4D3BBF113
:10079000020FB8BF00F072FF0098B84200F09880D6
:1007A000C01B3918C4084A68520852004A6040F019
:1007B000010179603850202C20D205EBC40101F1F1
:1007C0002806B046102838BF00F058FF286820FAE5
:1007D00004F1C90704D40121A1400843286006E0C0
:1007E000B068296988422CBF804600F047FFB76097
:1007F000C8F80C70C7F80880FE6069E0010A23D0D1
:10080000B1F5803F28BF1F211ED2A1F58072120CC6
:1008100002F008029140A1F580531B0C03F0040381
:100820009940A1F58044240CC2F10E0204F00204A8
:10083000D21A121BA14002EBD131CA1D20FA02F3D9
:1008400003F0010202EB410105EB81024FF49873C2
:100850001A44F96100237B613B616B6823FA01F460
:10086000E40705D4012088401843686017601CE045
:1008700012681F291DBF4908C1F1190100FA01F1D1
:10088000014600E01A465368DB08DB00834210D0C3
:10089000CB0F02EB830303F1100449002368002B04
:1008A000F0D12869844211D32760BA61FF60BF602C
:1008B0000EE0296990688A4228BF884206D3C76043
:1008C0009760B860FA600020B86101E000F0D6FEE1
:1008D000E8680299814211D2401AE860A969029A37
:1008E0000A44AA6140F001005060029840F0030001
:1008F000486004B001F10800BDE8F08D002004B0AC
:10090000BDE8F08D506C0020146900206859883CC7
:100910002DE9F84F0446002689465FEA1920C9F1FF
:10092000000B08BF002123D0B0F5803F28BF1F2156
:100930001ED2A0F58071090C01F008018840A0F5D5
:100940008052120C02F004029040A0F580431B0C70
:10095000C1F10E0103F00203891AC91A984001EB94
:10096000D030C11D29FA01F202F0010101EB400172
:1009700004EB8100D0F8300118B31F290FBF4A469D
:100980004A08C2F1190209FA02F2002300E05200FB
:100990004568ED08ED00A5EB09055D4503D25FEA6A
:1009A000050B06460BD04569D70F00EB8700002DDD
:1009B00000691CBF85422B460028E8D11846B8BB09
:1009C000C6BB01208840400041420843616808409E
:1009D00000F05D8141420840401E010B01F0100112
:1009E000C840420902F00802D040830803F0040323
:1009F000D840450805F002055118E8405918C0F3E1
:100A0000400729443944F840401804EB8000D0F8EE
:100A100030010DE008464168C908C900A1EB090191
:100A200059453CBF8B46064601690029F2D1406911
:100A30000028F0D1002E00F02A81A068A0EB090068
:100A4000834580F0248120698642C0F01E81706851
:100A5000C00809EB0B08C000404518BF00F00EFEAF
:100A600006EB0905AE4280F01081F768D6F818A0B1
:100A7000B7420CD0B0682169884223D3C168B14223
:100A800004BFB968B1421DD1C760B8601CE006F16F
:100A90001400076837B906F110000768A7B101E034
:100AA0000846076807F114010A68002A02BF07F127
:100AB00010010A68002AF3D12169884202D300217B
:100AC000016001E000F0DAFDBAF1000F39D0F06901
:100AD00004EB80004FF49871084401688E4209D1FC
:100AE0000760380014D1F2696068012191408843A1
:100AF000606026E02069824508D3DAF81000B04231
:100B000014BFCAF81470CAF8107001E000F0B6FD06
:100B1000BFB12069874212D3C7F818A0306930B13D
:100B20002169884226BF3861876100F0A7FD70699E
:100B300038B12169884202D37861876101E000F011
:100B40009DFDBBF1100F09D248F00300706006EB69
:100B50000800416841F00101416095E049F003005F
:100B600070604BF0010068604FEADB0045F80BB0A5
:100B700020281DD204EBC00101F12807216821FAC9
:100B800000F2D207BB4605D4012202FA00F0084366
:100B9000206006E0B868216988422CBF834600F0D7
:100BA0006DFDBD60CBF80C50C5F808B0EF606BE090
:100BB0005FEA1B2023D0B0F5803F28BF1F201ED244
:100BC000A0F58071090C01F008018840A0F5805261
:100BD000120C02F004029040A0F580431B0CC1F1FE
:100BE0000E0103F00203891AC91A984001EBD030B4
:100BF000C11D2BFA01F202F0010101EB400004EBF0
:100C000080014FF498721144E86100226A612A6100
:100C1000626822FA00F3DB0706D4012303FA00F02E
:100C2000104360600D601CE009681F281DBF40086C
:100C3000C0F119000BFA00F0584600E011464A686E
:100C4000D208D2005A4510D0C20F01EB820202F145
:100C5000100340001A68002AF0D12069834211D3A2
:100C60001D60A961ED60AD600EE022698868914267
:100C700028BF904206D3C5608D60A860E96000205F
:100C8000A86101E000F0FAFC08E100F0F7FC02E1E5
:100C90002DE9F84F04468846606841420840401EEE
:100CA000010B01F01001C840420902F00802D040D7
:100CB000830803F00403D840450805F002055118E5
:100CC000E8405918C0F3400629447118F040401814
:100CD00004EB8000D0F830014168C908C90006461D
:100CE000A1EB080A09E008464168C908C900A1EB60
:100CF000080151453CBF8A46064601690029F2D1E8
:100D000040690028F0D120698642C0F0C280706836
:100D1000C00808EB0A09C000484518BF00F0AEFC47
:100D200006EB080B5E4580F0B480F768B569B74202
:100D30000CD0B0682169884223D3C168B14204BF96
:100D4000B968B1421DD1C760B8601CE006F114005B
:100D5000076837B906F110000768A7B101E0084637
:100D6000076807F114010A68002A02BF07F11001A1
:100D70000A68002AF3D12169884202D30021016068
:100D800001E000F07BFC002D35D0F06904EB800021
:100D90004FF49871084401688E4209D10760380009
:100DA00011D1F2696068012191408843606022E0BE
:100DB0002069854205D32869B04214BF6F612F6155
:100DC00001E000F05BFCB7B12069874211D3BD613F
:100DD000306930B12169884226BF3861876100F0EF
:100DE0004DFC706938B12169884202D3786187610E
:100DF00001E000F043FCBAF1100F09D249F0030002
:100E0000706006EB0900416841F0010141603FE07C
:100E100048F0030070604AF00100CBF804004BF882
:100E20000AA0D4F808804FEAD805202D28BF00F08A
:100E300025FCB8F1000F27D0D4F81490009504EBEE
:100E4000C50000F128052F46B8F1100F38BF00F09B
:100E500015FC2068009920FA01F2D10705D4009A08
:100E6000012191400843206006E0A868216988427A
:100E70002CBF074600F002FCC5F80890C7F80C909C
:100E8000C9F80870C9F80C50C4F808A0C4F814B028
:100E900004E000F0F3FB0020BDE8F28F06F108004B
:100EA000BDE8F28F2DE9F04F83B00546C046C0463D
:100EB000F52DDFF8C04780F002810B2D31BF1027E0
:100EC00005F10B00C708FF002068FE08F04010F095
:100ED000030F42D0C04300F00100861904EBC600A6
:100EE00000F12808F700D8F808506868C008C0006A
:100EF000B84218BF00F0C2FBD5F80890454508BFBE
:100F000000F0BCFB4D4508BF00F0B8FB6868C008A6
:100F1000C000B84218BF00F0B1FBC84505D1206839
:100F20000121B140884320600DE02069814508D34C
:100F3000D9F80C00A84204D1C8F80890C9F80C8070
:100F400001E000F09BFB47F003006860E8190835FA
:100F5000416841F001014160F9E0A168B94280F0C7
:100F6000C080002800F0A280012505FA06F14900A2
:100F70004A42B0401143084041420840401E010B24
:100F800001F01001C840420902F00802D040830875
:100F900003F00403D840460806F002065118F0405A
:100FA0005918C0F340087118414420FA08F000EBCA
:100FB000010804EBC80000F128094FEAC80AD9F873
:100FC00008607068C008C000504518BF00F056FBAC
:100FD000D6F808B04E4508BF00F050FB5E4508BF8C
:100FE00000F04CFB7068C008C000504518BF00F00E
:100FF00045FBD94505D1206805FA08F188432060F2
:101000000DE02069834508D3DBF80C00B04204D121
:10101000C9F808B0CBF80C9001E000F02FFB47F0C6
:1010200003007060AAEB0708F019019048F0010076
:1010300001994860019840F80880A7684FEAD70AEC
:10104000BAF1200F28BF00F019FB47B3CDF800A07C
:1010500004EBCA00D4F8149000F1280AD346102FEC
:1010600038BF00F00BFB2068009920FA01F2D1078D
:1010700005D4009905FA01F10843206007E0DAF889
:101080000800216988422CBF834600F0F7FACAF8AD
:101090000890CBF80C90C9F808B0C9F80CA0C4F8B7
:1010A000088006F108050198606150E06068C0B3EF
:1010B00039462046FFF7ECFD050012D047E015F158
:1010C000400F28BF4FF0FF370BD205F10B00C708C8
:1010D0006068FF0028B139462046FFF719FC05007B
:1010E00035D1A068B8421CD3C11B626910290AD34C
:1010F000D0196061A16041F001034360415047F0A5
:10110000030050600AE00021A160616140F003012A
:1011100051601044416841F00101416002F108054D
:1011200015E0E06887420DD2C01BA169E060CA19D2
:10113000A26140F00100506001F1080547F0030092
:10114000486004E039462046FFF718FA0546C046D5
:10115000C046284603B0BDE8F08F00B970472DE9BE
:10116000F047A0F10804C046C046DFF808552869DA
:101170008442C0F07982616801F00302012A00F024
:101180007382CA084FEAC208CA0704EB080937D4B9
:10119000226811F0030F00F0698251420C4484422E
:1011A0009044C0F0618269698C4200F0D980D60811
:1011B000202E70D2D4F80CA0A768544508BF00F0C8
:1011C0005DFABC4208BF00F059FA6068C008C00070
:1011D000B0EBC60F18BF00F051FA05EBC60000F1E6
:1011E00028018F4205D029698F4251D3F968A14265
:1011F0004ED1BA453DD128680121B14088432860CD
:101200004C4580F03182D9F80400C10740F12C82AE
:10121000810700F17D81A969894540F0B680E868C1
:10122000AC614044E86040F00101616069698C4252
:1012300002D100216961A960E969814280F01682CA
:10124000DFF83404006808B9FEF7ACFFA96900298B
:1012500000F00C82E868292824BF2846FEF794FF96
:10126000E869E968884280F001824FF0FF30E86168
:10127000FCE12830824506D02869824508D3DAF897
:101280000800A04204D1C7F80CA0CAF80870B7E75C
:1012900000F0F4F9B4E7E768A669A7420BD0A168AB
:1012A000814222D3C868A04204BFB868A0421CD1C2
:1012B000CF60B9601BE004F114010F6837B904F185
:1012C00010010F689FB101E011460F6807F1140289
:1012D0001368002B02BF07F110021368002BF3D133
:1012E000814202D30020086001E000F0C7F9002E1F
:1012F00086D0E06905EB80004FF4987108440168DE
:101300008C4209D10760380011D1E2696868012177
:1013100091408843686073E72869864205D3306945
:10132000A04214BF7761376101E000F0A7F9002FF8
:101330003FF466AF28698742AAD3BE61216929B10B
:10134000814226BF39618F6100F098F960690028F9
:101350003FF456AF296988429AD3786187614FE795
:1013600099F8040000F0030003287FF449AFC5F8A2
:101370000880D9F8040040084000C9F8040048F08B
:101380000100606044F8088070E16969894508D10E
:10139000A8686C614044A86040F001016160205081
:1013A00064E1C008C0004FEAD00ABAF1200F8044BF
:1013B00037D2D9F80C70D9F80860B94508BF00F0E9
:1013C0005DF9B14508BF00F059F9D9F80400C0082B
:1013D000C000B0EBCA0F18BF00F050F905EBCA000F
:1013E00000F128018E4207D029698E42C0F0838027
:1013F000F168494540F07F80B74206D12868012155
:1014000001FA0AF18843286077E02830874205D046
:10141000286987426FD3B86848456CD1F760BE60D1
:101420006BE0D9F80C70D9F818604F450DD0D9F899
:1014300008002969884223D3C168494504BFB968B7
:1014400049451DD1C760B8601CE009F11400076868
:1014500037B909F110000768A7B101E0084607682D
:1014600007F114010A68002A02BF07F110010A6897
:10147000002AF3D12969884202D30021016001E0EA
:1014800000F0FCF8002E38D0D9F81C0005EB8000E5
:101490004FF498710844016889450AD10760380003
:1014A00012D1D9F81C2068680121914088436860F6
:1014B00023E02869864205D33069484514BF776127
:1014C000376101E000F0DAF8BFB12869874212D332
:1014D000BE61D9F8101029B1814226BF39618F61F0
:1014E00000F0CCF8D9F8140038B12969884202D349
:1014F0007861876101E000F0C1F848F001006060A8
:1015000044F80880686984420BD1C5F80880ADE0D2
:1015100040084000C9F8040048F00100606044F849
:1015200008804FEAD807202F22D205EBC70000F130
:1015300028094E46B8F1100F38BF00F09FF8286810
:1015400020FA07F1C90704D40121B94008432860F3
:1015500007E0D9F80800296988422CBF064600F048
:101560008DF8C9F80840F460A660C4F80C907DE0DE
:101570005FEA182008BF002123D0B0F5803F28BFC4
:101580001F211ED2A0F58071090C01F008018840CE
:10159000A0F58052120C02F004029040A0F58043A6
:1015A0001B0CC1F10E0103F00203891AC91A9840FD
:1015B00001EBD030C11D28FA01F202F0010101EB6C
:1015C000400105EB81004FF49872104400226261E3
:1015D0002261E1616A6822FA01F3DB0706D4012384
:1015E00003FA01F11143696004601CE000681F29DF
:1015F0001DBF4908C1F1190108FA01F1414600E097
:1016000010464268D208D200424510D0CA0F00EB03
:10161000820202F1100349001A68002AF0D12969F8
:101620008B4211D31C60A061E460A4600EE02A69C3
:101630008168904228BF914206D3CC608460E0600C
:10164000A1600020A06101E000F018F8286A401EA7
:1016500028620BD1D5F8C80100E080680028FCD1D1
:101660004FF0FF30286201E000F008F8C046C046A5
:10167000BDE8F08714690020506C0020012000F0C4
:1016800017B800000749086808B1002070470648ED
:10169000C008C00008600549C908C900091A0160EE
:1016A000704700BF886C00200741002000610020C7
:1016B00080B5C046C046024A11001820ABBEFBE709
:1016C000260002000EB418B504000898012817D1AE
:1016D000A06B30F48030A063E068DFF81018084099
:1016E000E060E06830F44010E0600F98012803D11A
:1016F000E06850F48010E060200000F086FE09E011
:10170000E06850F04000E060200000F07EFE5FF4F2
:101710008030A0630698012807D1A06850F0060029
:10172000A060A06850F02000A060002012BC5DF80E
:1017300010FB0100886850F00100886000207047AD
:10174000010088684008400088600020704738B574
:1017500004000D00E06830F0C040E060EDB2012D03
:1017600004D1E06850F00050E06006E0EDB2002DDA
:1017700003D1E06850F08040E060322000F06AFE63
:10178000002032BD0EB430B5040000250D980028AD
:1017900004D1A06B50F40010A06303E0A06B50F4E0
:1017A0000020A063002014F56061086014F500605B
:1017B000006814F500610860089801280CD10598AC
:1017C000002804D10021200000F0D7F808E0012112
:1017D000200000F0D2F803E00321200000F0CDF853
:1017E0001021200000F0A7F8200000F0B6F800203B
:1017F00014F500610861002014F5006148615FF094
:10180000FF3014F500618861002014F50061C861A3
:10181000002005000398854222D214EB451010F5F4
:1018200010600068002807D55FF0904014EB451168
:1018300011F51061086005E0002014EB451111F569
:101840001061086014EB451010F510600021016173
:1018500014EB451010F51060FF2181606D1CD9E775
:10186000002005000398854222D214EB451010F5A4
:1018700030600068002807D55FF0904014EB4511F8
:1018800011F53061086005E0002014EB451111F5F9
:101890003061086014EB451010F5306000210161E3
:1018A00014EB451010F53060FF2181606D1CD9E705
:1018B00014F50060006930F4807014F5006108616F
:1018C0000698012812D1DFF87C0B14F5006108633B
:1018D00014F50060006B40F4803050F0030014F504
:1018E0000061086314F50060006B05000020A06132
:1018F0007FF0804060610698002803D1A06950F015
:101900001000A061A069DFF8401B0843A06109989E
:10191000002803D0A06950F00800A0610D980128AC
:1019200005D1A06940F0804050F00400A061002083
:1019300030BC5DF810FB02000023880150F020004D
:1019400010615B1CDFF8040B834201D3032003E02A
:1019500010698006F5D40020704701000022102095
:101960000861521CDFF8E40A824201D3032003E03D
:101970000869C006F5D400207047020012F5006027
:101980000068C9B2084312F5006318600020704770
:101990000100002011F50062926812F0060F02D1DA
:1019A0000022100019E011F50062926812F00602A0
:1019B000022A06D011F50062926812F00602062A89
:1019C00002D10322100008E011F50062926812F0C3
:1019D0000602042A01D102221000C0B2704730B4BE
:1019E0000200487801282DD112F50060C06901235A
:1019F0000C78A3409BB2184312F50063D8610878B5
:101A000012EB401010F510600068000444D4087810
:101A100012EB401010F510600B7812EB431313F526
:101A200010631B688C686405640DCD7854EA8544A6
:101A30000D7854EA855444F0805454F40044234310
:101A4000036029E012F50060C06901230C78A3400F
:101A500050EA034012F50063D861087812EB401099
:101A600010F530600068000416D4087812EB4010BE
:101A700010F530600B7812EB431313F530631B68DD
:101A80008C686405640DCD7854EA854444F0805434
:101A900054F4004423430360002030BC704770B509
:101AA00004000D000026687801283CD1287814EB4A
:101AB000401010F51060297814EB411111F51061F8
:101AC000096831F400410160287814EB401010F5EA
:101AD00010605FF000610160287814EB401010F591
:101AE00010605FF080410160761CDFF8600986427B
:101AF00001D3032058E0287814EB401010F5106053
:101B000080684000F0D410212000FFF714FF14F586
:101B10000060C06901212A78914089B2884314F598
:101B20000061C8613FE0287814EB401010F5306088
:101B3000297814EB411111F53061096831F4004145
:101B40000160287814EB401010F530605FF0006100
:101B50000160287814EB401010F530605FF0804190
:101B60000160761CDFF8E408864201D303201BE005
:101B7000287814EB401010F530608068C006F0D46F
:101B800014F50060406850F4806014F5006148600E
:101B900014F50060C06901212A78914030EA0140C3
:101BA00014F50061C861002070BDF8B504000D0097
:101BB000160000276878012840F0EE806869002848
:101BC0002AD1287814EB401010F51060297814EB16
:101BD000411111F5106109696FF3DC410161287849
:101BE00014EB401010F51060297814EB411111F539
:101BF0001061096951F400210161287814EB40104B
:101C000010F51060297814EB411111F51061096984
:101C1000C90CC904016162E0287814EB401010F58A
:101C20001060297814EB411111F510610969C90C94
:101C3000C9040161287814EB401010F51060297870
:101C400014EB411111F5106109696FF3DC41016179
:101C5000287814EB401010F51060297814EB41112E
:101C600011F5106109696A69AB689A18521EAB6870
:101C7000B2FBF3F2DFF8D83713EAC2421143016135
:101C8000287814EB401010F51060297814EB4111FE
:101C900011F5106109696A695203520B1143016120
:101CA000E87801281BD1287814EB401010F510605B
:101CB000297814EB411111F51061096931F0C04127
:101CC0000161287814EB401010F51060297814EBAE
:101CD000411111F51061096951F000510161F6B22D
:101CE000012E07D1287814EB401010F510602969F7
:101CF00041610FE0E87801280CD06869002809D01C
:101D000014F50060406B01212A789140084314F5D6
:101D100000614863E878012821D114F500608068EB
:101D2000C0050ED4287814EB401010F51060297807
:101D300014EB411111F51061096851F00051016077
:101D40000DE0287814EB401010F51060297814EBA2
:101D5000411111F51061096851F080510160287836
:101D600014EB401010F51060297814EB411111F5B7
:101D70001061096851F004410160E878012840F0E1
:101D8000B2803000C0B200906B699BB22A78E968DB
:101D9000200000F0A2F9A6E0287814EB401010F51E
:101DA0003060297814EB411111F530610969C90CD3
:101DB000C9040161287814EB401010F530602978CF
:101DC00014EB411111F5306109696FF3DC410161D8
:101DD000686900281ED1287814EB401010F5306097
:101DE000297814EB411111F530610969AA68520391
:101DF000520B11430161287814EB401010F530604C
:101E0000297814EB411111F53061096951F4002171
:101E100001612BE06869A9680818401EA968B0FB39
:101E2000F1F00700287814EB401010F530602978A5
:101E300014EB411111F530610969BFB2DFF81026CA
:101E400012EAC74211430161287814EB401010F5E3
:101E50003060297814EB411111F530610969AA68E5
:101E6000BFB27A435203520B11430161F6B2012E05
:101E700006D1287814EB401010F53060E968416114
:101E8000E878012821D114F500608068C0050ED4DF
:101E9000287814EB401010F53060297814EB4111CC
:101EA00011F53061096851F0005101600DE02878AA
:101EB00014EB401010F53060297814EB411111F546
:101EC0003061096851F080510160287814EB4010AE
:101ED00010F53060297814EB411111F53061096873
:101EE00051F0044101600020F2BD0000BFFFBDFFC2
:101EF00030B403004878012840F0958048690028F4
:101F00002AD1087813EB401010F510600C7813EB11
:101F1000441414F5106424696FF3DC4404610878F8
:101F200013EB401010F510600C7813EB441414F50B
:101F30001064246954F400240461087813EB401001
:101F400010F510600C7813EB441414F51064246938
:101F5000E40CE40404613FE0087813EB401010F552
:101F600010600C7813EB441414F510642469E40C2D
:101F7000E4040461087813EB401010F510600C784D
:101F800013EB441414F5106424696FF3DC4404610A
:101F900088684C69A04201D288684861087813EBD0
:101FA000401010F510600C7813EB441414F5106415
:101FB000246954F400240461087813EB401010F5F0
:101FC00010600C7813EB441414F5106424694D6907
:101FD0006D036D0B2C430461087813EB401010F572
:101FE00010600C7813EB441414F51064246854F05A
:101FF00004440460D2B2012A07D1087813EB4010E0
:1020000010F510600C69446164E04869002861D0F3
:1020100013F50060406B01240D78AC40204313F5AC
:102020000064606356E0087813EB401010F53060F0
:102030000C7813EB441414F530642469E40CE404C4
:102040000461087813EB401010F530600C7813EB46
:10205000441414F5306424696FF3DC440461486966
:10206000002801D088684861087813EB401010F50B
:1020700030600C7813EB441414F53064246954F484
:1020800000240461087813EB401010F530600C78E0
:1020900013EB441414F5306424698D686D036D0BE3
:1020A0002C430461D2B2012A06D1087813EB401008
:1020B00010F53060CC684461087813EB401010F5DF
:1020C00030600C7813EB441414F53064246854F039
:1020D00004440460002030BC7047F0B40500049C48
:1020E00000260027E4B2002C14D19BB2D81C800833
:1020F000060000200700B7420CD20868D2B24FF4A5
:10210000805C0CFB025C1CF5805CCCF800007F1C42
:10211000091DF0E70020F0BC704730B40300080050
:10212000002192B2D41CA40800252900A14206D2A5
:1021300013F580552D680560491C001DF6E730BC7D
:10214000704702004878012824D1087812EB40102B
:1021500010F51060006800280DD4087812EB4010CC
:1021600010F510600B7812EB431313F510631B6826
:1021700033F080430360087812EB401010F51060D4
:102180000B7812EB431313F510631B6853F4001321
:10219000036023E0087812EB401010F5306000680F
:1021A00000280DD4087812EB401010F530600B7841
:1021B00012EB431313F530631B6833F08043036065
:1021C000087812EB401010F530600B7812EB4313D7
:1021D00013F530631B6853F400130360002070474D
:1021E00002004878012822D1087812EB401010F53F
:1021F00010600B7812EB431313F510631B6833F474
:1022000000130360C878032802D0C878022830D1B0
:10221000087812EB401010F510600B7812EB4313A6
:1022200013F510631B6853F08053036021E00878B6
:1022300012EB401010F530600B7812EB431313F5DE
:1022400030631B6833F400130360C878032802D09E
:10225000C87802280DD1087812EB401010F53060D4
:102260000B7812EB431313F530631B6853F0805364
:10227000036000207047020012F50060006830F42F
:10228000FE6012F50063186012F500600068C9B2C4
:102290000B0113F4FE63184312F50063186000206D
:1022A000704710B5040014F50060406830F002007B
:1022B00014F500614860032000F0CCF8002010BD48
:1022C00010B5040014F50060406850F0020014F5E9
:1022D00000614860032000F0BDF8002010BD01003F
:1022E00000204A6910008A6910407047010011F50A
:1022F00000629269100011F50062D2691040000C72
:102300007047010011F500629269100011F500623A
:10231000D269104080B270470200C9B212EB41137B
:1023200013F530639B68180012F500635B69184071
:10233000704730B4020012F500652D692C0012F5CB
:1023400000656D6B2B001D00CD40ED0115F0800583
:102350002C43C9B212EB411515F51065AD68254047
:10236000280030BC7047406910F001007047010040
:1023700011F510600068C00AC00211F5106210600B
:1023800011F50060806810F00600042807D111F5EF
:102390001060006850F0030011F51062106011F534
:1023A0000060406850F4807011F5006250600020B9
:1023B000704710B40300002013F53064206113F55A
:1023C0003060006950F4002013F53064206113F58B
:1023D0003060006950F0180013F53064206113F587
:1023E0003060006950F0C04013F530642061C9B21C
:1023F000012907D113F5306042615FF0802013F5A9
:1024000030642060002010BC704701000022521C84
:102410000E48824201D3032012E008690028F6D555
:1024200000200200086950F001000861521C0748B2
:10243000824201D3032003E00869C007F6D40020DC
:10244000704700000001800000383C80410D03000F
:102450000000F81F31B500F00DF80400009D15F1E3
:10246000010F00D06D1C00F005F8001BA842FAD344
:1024700031BD000001480068704700BF786C002043
:1024800010B50400002C01D1012016E094F83400AE
:10249000002804D100202077200000F08AFE0320CD
:1024A00084F83400200000F009F80020A063002028
:1024B0002063012084F83400002010BD30B589B0BD
:1024C00004000025002003900020049000200590C7
:1024D00000200690002007907620089003A983B082
:1024E0006846182200F028FF0EBC206800F050FF5C
:1024F0000020DFF894160860206800F06AFF0120D1
:10250000DFF8841608600220FFF7A4FF200000F027
:1025100069FD0500002D07D0012084F83400A06B70
:102520002843A06301200EE0200000F0DAFC050043
:10253000002D07D0012084F83400A06B2843A0634D
:10254000012000E0002009B030BD2DE9F24F86B037
:10255000040093461D00109E0027FFF78BFF804666
:102560005FF00009DDF818A00698002805D1A06BDF
:1025700050F00060A06301200FE194F834000128BE
:1025800040F006810020A063E06D15EB0B0188424E
:1025900005D2A06B50F00070A0630120FDE0032085
:1025A00084F8340000202168C862606C012803D0E0
:1025B0004FF4007000FB0BFB4FF40071206800F03B
:1025C0004CFF0700002F0BD040F2FF5021688863BA
:1025D000A06B3843A063012084F834000120DCE0C4
:1025E0005FF0FF3000904FF4007000FB05F00190A9
:1025F000902002900220039000200490012005907A
:102600006946206800F012FF022D07D302202063E4
:102610005946206800F05BFF070006E001202063B8
:102620005946206800F036FF0700002F0BD040F21B
:10263000FF5021688863A06B3843A063012084F8B1
:1026400034000120A9E02068406B40F22A310842A2
:1026500027D12068406B00040ED500208146B9F1D7
:10266000080F07D2206800F0ABFE4AF8290019F1E4
:102670000109F4E71AF1200A002E05D0FFF7FAFE4F
:10268000B0EB0800B042DED340F2FF50216888630F
:10269000A06B50F00040A063012084F834000320B8
:1026A0007BE02068406BC00516D5022D14D3606C0A
:1026B000032811D0206800F061FF0700002F0BD025
:1026C00040F2FF5021688863A06B3843A06301206B
:1026D00084F83400012060E02068406B00070CD5CE
:1026E00040F2FF5021688863A06B50F00800A0639F
:1026F000012084F8340001204FE02068406B8007FF
:102700000CD540F2FF5021688863A06B50F00200A6
:10271000A063012084F8340001203EE02068406B73
:1027200080060CD540F2FF5021688863A06B50F002
:102730002000A063012084F8340001202DE02068EF
:10274000406B80021BD5206800F03AFECAF80000FA
:102750001AF1040A002E05D0FFF78CFEB0EB08003A
:10276000B042ECD340F2FF5021688863A06B50F078
:102770000040A063012084F8340001200DE040F205
:10278000FF5021688863012084F83400002004E0B1
:10279000A06B50F00050A063012007B0BDE8F08F9F
:1027A0002DE9F24F86B0040093461D00109E0027CD
:1027B000FFF760FE80465FF00009DDF818A006987C
:1027C000002805D1A06B50F00060A0630120EEE06E
:1027D00094F83400012840F0E5800020A063E06D0B
:1027E00015EB0B01884205D2A06B50F00070A0637E
:1027F0000120DCE0032084F8340000202168C86256
:10280000606C012803D04FF4007000FB0BFB4FF409
:102810000071206800F021FE0700002F0BD040F26D
:10282000FF5021688863A06B3843A063012084F8BF
:1028300034000120BBE0022D07D32020206359463D
:10284000206800F07EFE070006E010202063594655
:10285000206800F059FE0700002F0BD040F2FF5017
:1028600021688863A06B3843A063012084F834009A
:1028700001209CE05FF0FF3000904FF4007000FBFF
:1028800005F0019090200290002003900020049019
:10289000012005906946206800F0C8FD2068406B63
:1028A00040F21A31084226D12068406B40040ED510
:1028B00000208146B9F1080F07D20AEB8901206890
:1028C00000F081FD19F10109F4E71AF1200A002E48
:1028D00005D0FFF7CFFDB0EB0800B042DED340F2E9
:1028E000FF5021688863A06B3843A063012084F8FF
:1028F000340003205BE02068406BC00516D5022D34
:1029000014D3606C032811D0206800F037FE070054
:10291000002F0BD040F2FF5021688863A06B384332
:10292000A063012084F83400012040E02068406B5F
:1029300000070CD540F2FF5021688863A06B50F06F
:102940000800A063012084F8340001202FE02068F3
:10295000406B80070CD540F2FF5021688863A06B64
:1029600050F00200A063012084F8340001201EE032
:102970002068406BC0060CD540F2FF502168886388
:10298000A06B50F01000A063012084F834000120F7
:102990000DE040F2FF5021688863012084F8340084
:1029A000002004E0A06B50F00050A063012007B0AD
:1029B000BDE8F08F38B5040000252068406BC005E5
:1029C0005BD54FF48070216888632068C06B6F49C5
:1029D00008402168C863206B000726D5206B80075C
:1029E00002D4206B80060BD5206800F0C7FD0500DF
:1029F000002D05D0A06B2843A063200001F058F8FB
:102A000040F2FF5021688863012084F83400206B75
:102A1000C00702D4206B800703D5200001F049F8DD
:102A2000B0E0200001F046F8ACE0206B000640F179
:102A3000A980206B80060BD5206800F09FFD050063
:102A4000002D05D0A06B2843A063200001F030F8D2
:102A5000206BC00700F19680206B800700F1928008
:102A60002068C06A30F008002168C862012084F83C
:102A70003400200001F01EF884E02068406B400420
:102A800007D54FF4804021688863200000F04DFB9B
:102A900078E02068406B000407D54FF400402168BF
:102AA0008863200000F02CFB6CE02068406B40F253
:102AB0003A21084266D02068406B800703D5A06B9E
:102AC00050F00200A0632068406B000703D5A06BA4
:102AD00050F00800A0632068406B800603D5A06B0F
:102AE00050F02000A0632068406BC00603D5A06BA7
:102AF00050F01000A0632068406B800503D5A06BE8
:102B000050F00800A06340F2FF70216888632068DD
:102B1000C06B1E4908402168C863206B000628D599
:102B2000206C00280CD00FF20D30216C0865206C51
:102B300001F035F8002825D0206C00F07BF921E069
:102B4000E06B00280CD00FF24530E16B0865E06BBC
:102B500001F025F8002815D0E06B00F097F911E09E
:102B60000020A063012084F83400200001F0A0F9C7
:102B700008E0206B000705D5012084F83400200010
:102B800000F096FF31BD0000A0802542C5FCFFFF8C
:102B900030B402000023506E000E0300C3F3811016
:102BA0000870C3F38300487013F003008870506E00
:102BB000C0F307400300CB70506EC0F30720030042
:102BC0000B7192F8640000F0FF0003004B71906EEF
:102BD000000E03001801C880906EC0F30740030088
:102BE000C888C3F303142043C88013F00F00087291
:102BF000906EC0F307200300C3F3C0104872C3F304
:102C000080108872C3F34010C872C3F300100873B9
:102C100000204873506C002847D1980210F440609F
:102C2000086192F868000300086950EA83000861AF
:102C3000D06E000EC0B203000869C3F381142043B4
:102C40000861C3F3C200087513F007004875D06E21
:102C5000000CC0B20300C3F342108875C3F38200B6
:102C6000C875580010F006000876D06E000AC0B291
:102C70000300087EC3F3C014204308760869401C93
:102C80005065506D01240D7EAD1CAC406043506515
:102C900001200C7AA0409065506D946D640A6043E9
:102CA000D0654FF40070106637E0506C012827D1D2
:102CB00092F868000300180410F47C100861D06ECC
:102CC000000EC0B20300086950EA03200861D06E0C
:102CD000000CC0B20300086918430861D06E000AF6
:102CE000C0B203000869401C4FF480646043506523
:102CF000506DD0654FF400709065906D10660CE0DB
:102D000040F2FF501468A063906B50F080509063C5
:102D1000012082F8340001205DE0C3F38010487682
:102D2000580010F07E00887692F86C000300887ED0
:102D3000C3F3C0142043887613F07F00C876106F69
:102D4000000EC0B20300C3F3C0100877C3F34110F4
:102D50004877C3F382008877980010F00C00C8779A
:102D6000106F000CC0B20300C87FC3F3811420436E
:102D7000C877C3F3401081F82000002081F82100BB
:102D800013F0010081F82200106F000AC0B20300A6
:102D9000C3F3C01081F82300C3F3801081F824002E
:102DA000C3F3401081F82500C3F3001081F826001A
:102DB000C3F3810081F8270013F0030081F8280095
:102DC00092F870000300C3F3460081F82900012047
:102DD00081F82A00002030BC70470200506C086067
:102DE000906C4860D06C8860106DC860506D086150
:102DF000906D4861D06D8861106EC8610020704789
:102E000070B582B0040004250026002000906946B9
:102E1000200000F05BF90600002E02D0A06B3043CA
:102E2000A0630098400A10F00F0005002800C0B20F
:102E300076BD000070B50400A56B286C002801D099
:102E400000202864E86B00281ED12800FFF7D8FF77
:102E500006000020A863012085F83400F6B2062E93
:102E600002D0F6B2052E0FD1286800F087FBA96BBF
:102E70000843A863A86B002803D0280001F018F8C5
:102E800002E0280000F014FE70BD000070B50400E0
:102E9000A56BE86B002801D00020E863286C0028AF
:102EA0001ED12800FFF7ACFF06000020A863012018
:102EB00085F83400F6B2062E02D0F6B2052E0FD1F8
:102EC000286800F05BFBA96B0843A863A86B002887
:102ED00003D0280000F0ECFF02E0280000F0E8FD3D
:102EE00070BD30B58FB0040000250120ADF80C0096
:102EF000206800F073FA002802D15FF080606FE074
:102F0000606C03281CD0206800F0E2FB0500002D57
:102F100001D0280064E00021206800F07BFA60679F
:102F20000421206800F076FAA0670821206800F0EC
:102F300071FAE0670C21206800F06CFAC4F8800098
:102F4000606C032808D003A9206800F0F5FB050099
:102F5000002D01D0280043E0606C032820D0BDF88C
:102F60000C002065206D0104206800F0CBFB0500FB
:102F7000002D01D0280033E00021206800F04AFA3B
:102F800060660421206800F045FAA06608212068E8
:102F900000F040FAE0660C21206800F03BFA206760
:102FA0000421206800F036FA000DE06404A9200036
:102FB000FFF7EEFD206D02040023206800F0FBFA0D
:102FC0000500002D01D028000AE0211D83B06846CD
:102FD000182200F0B1F90EBC206800F0D9F90020E9
:102FE0000FB030BDF8B50400002000900025002689
:102FF0000027206800F0FDFA0700002F01D03800FC
:1030000063E0206800F00FFB0700002F2CD00020A9
:10301000A064002E25D10098411C00914FF6FF714D
:10302000884202D15FF080704FE00021206800F0FC
:1030300015FB0700002F02D05FF0805045E0002113
:10304000206800F028FB0700002F02D05FF08050BE
:103050003BE00021206800F0DDF90500E80F0600E4
:10306000D7E7002060642FE00120A064002E24D167
:103070000098411C00914FF6FF71884202D15FF029
:10308000807022E00021206800F0E8FA0700002F9D
:1030900001D0380019E05FF08041206800F0FBFAB1
:1030A0000700002F01D038000FE00021206800F059
:1030B000B1F90500E80F0600D8E7680002D5012045
:1030C000606401E0002060640020F2BD70B504007F
:1030D0000D000026002D02D15FF000600FE0206D92
:1030E0000104206800F045FB0600002E01D03000EE
:1030F00005E00021206800F08DF92860002070BDF7
:1031000070B504000025A06A060000200500082D07
:1031100006D2206800F054F946F825006D1CF6E749
:10312000A06A2030A062002070BD70B504000025A8
:10313000206A060000200500082D06D206EB850156
:10314000206800F040F96D1CF6E7206A203020620C
:10315000002070BD80B5032000F014FF0022002184
:103160007FF00B0000F014FF002200217FF00A0026
:1031700000F00EFF002200217FF0090000F008FFA0
:10318000002200217FF0040000F002FF0022002155
:103190007FF0030000F0FCFE002200217FF0010020
:1031A00000F0F6FE002200215FF0FF3000F0F0FE9C
:1031B00001BD10B586B0040020685649884240F031
:1031C000A780002000905448006850F400605249E5
:1031D00008605148006810F40060009000984FF4B7
:1031E0008850019002200290012003900320049057
:1031F0000C20059001A9494800F012FF042001901D
:103200000220029001200390032004900C200590DE
:1032100001A9434800F004FF4248434908605FF0B9
:1032200000604149486000203F49886000203E49D5
:10323000C8604FF480603C4908614FF480503A49BF
:1032400048614FF480403849886120203649C86180
:10325000002035490862042033494862032032497E
:1032600088625FF400003049C8625FF400102E49A4
:1032700008632D4800F020FC002803D08C212B4847
:1032800001F0ECF82848E06327488463284829497E
:1032900008605FF000602749486040202549886049
:1032A00000202449C8604FF48060224908614FF42F
:1032B0008050204948614FF480401E498861202099
:1032C0001C49C86100201B49086204201949486252
:1032D0000320184988625FF400001649C8625FF451
:1032E000001014490863134800F0E6FB002803D0DF
:1032F000A1210E4801F0B2F80E4820640D48846305
:1033000000220521312000F043FE312000F053FE61
:1033100006B010BD002C01404438024000080240B5
:10332000000C024058640240706B002018790008BD
:10333000A0640240D06B0020103A07D330B4B1E84B
:103340003810103AA0E83810F9D230BC530724BF27
:10335000B1E80810A0E8081044BF51F8043B40F859
:10336000043BD20724BF31F8022B20F8022B44BFC4
:103370000B7803707047083A07D3B1E80810083A91
:1033800040F8043B40F804CBF7D25307E4E70000D1
:103390000EB4010000220098019B1843029B1843C1
:1033A000039B1843049B1843059B1843024348683A
:1033B000DFF8E836184010434860002003B070473B
:1033C000D0F88000704702000868C2F88000002032
:1033D000704701000320086000207047006810F06B
:1033E0000300704710B4020000230868906048682A
:1033F0008C682043CC6820430C6920430343D06889
:10340000000B00031843D060002010BC7047006917
:10341000C0B2704781B002000020009012F1140089
:10342000081800900098006801B0704710B40200BE
:10343000002308685062486890628868CC6820431E
:103440000C6920434C6920430343D06A30F0F700F5
:103450001843D062002010BC704770B586B00400DD
:103460000D000026009510200190402002900020C1
:1034700003904FF48060049069462000FFF7B2FF8C
:1034800041F288321021200000F0ABF90600300034
:1034900006B070BD70B586B004000D000026009522
:1034A0001120019040200290002003904FF4806092
:1034B000049069462000FFF795FF41F28832112100
:1034C000200000F08EF90600300006B070BD70B527
:1034D00086B004000D0000260095122001904020C7
:1034E0000290002003904FF4806004906946200011
:1034F000FFF778FF41F288321221200000F071F9C5
:103500000600300006B070BD70B586B004000D0036
:103510000026009518200190402002900020039082
:103520004FF48060049069462000FFF75BFF41F292
:1035300088321821200000F054F90600300006B04F
:1035400070BD70B586B004000D00002600951920EE
:10355000019040200290002003904FF4806004907E
:1035600069462000FFF73EFF41F288321921200012
:1035700000F037F90600300006B070BD30B585B0F8
:1035800004000025002000900C20019040200290B3
:10359000002003904FF48060049069462000FFF7FC
:1035A00021FFDFF8FC240C21200000F01AF90500AF
:1035B000280005B030BDF0B585B0060014001D0030
:1035C00000270094072001904020029000200390E3
:1035D0004FF48060049069463000FFF703FF41F22A
:1035E00088320721300000F0FCF80700380005B0F1
:1035F000F0BD30B585B0040000250020009000200B
:10360000019000200290002003904FF4806004900D
:1036100069462000FFF7E6FE200000F0C7F805002D
:10362000280005B030BD30B585B0040000254FF44A
:10363000D570009008200190402002900020039057
:103640004FF48060049069462000FFF7CBFE200015
:1036500000F0FEF90500280005B030BD70B586B059
:1036600004000D00002600953720019040200290B4
:10367000002003904FF48060049069462000FFF71B
:10368000B1FE41F288323721200000F0AAF806008E
:10369000300006B070BD70B586B004000D00002685
:1036A000DFF8000428430090292001904020029078
:1036B000002003904FF48060049069462000FFF7DB
:1036C00091FE200000F051F90600300006B070BDF8
:1036D00030B585B004000025002000900220019044
:1036E000C0200290002003904FF48060049069464F
:1036F0002000FFF777FE200000F00DF905002800FC
:1037000005B030BD70B586B004000D0000260095F0
:1037100009200190C0200290002003904FF48060A7
:10372000049069462000FFF75DFE200000F0F3F8EA
:103730000600300006B070BD70B586B004000D0004
:1037400000260020009003200190402002900020DD
:1037500003904FF48060049069462000FFF742FE1A
:103760002A000321200000F023F90600300006B0F3
:1037700070BD70B586B004000D00002600950D20C8
:10378000019040200290002003904FF4806004904C
:1037900069462000FFF726FE41F288320D21200005
:1037A00000F01FF80600300006B070BD0100BE48F2
:1037B0000068C0084FF47A72B0FBF2F041F2883230
:1037C00002FB00F21000421E002802D15FF0004010
:1037D00006E0486B0006F5D540F2FF5088630020F4
:1037E00070472DE9F04104000D001600AE48006856
:1037F000C0084FF47A71B0FBF1F000FB06F84046C8
:10380000B0F10108002802D15FF0004081E0606B58
:1038100010F0450FF3D0606B400703D50420A06380
:10382000042076E0606BC00703D50120A06301206F
:103830006FE02000FFF7EBFD2900C9B2884201D0FC
:10384000012066E040F2FF50A06300212000FFF756
:10385000E1FD07009548074201D1002059E0002F03
:1038600002D55FF0007054E0780001D5402050E0B0
:10387000B80001D580204CE0F80002D54FF48070EC
:1038800047E0380102D54FF4007042E0780102D5DC
:103890004FF480603DE0F80102D54FF4006038E05D
:1038A000380202D54FF4805033E0780202D54FF44D
:1038B00000502EE0B80202D54FF4804029E0F80213
:1038C00002D54FF4004024E0780302D55FF40030C5
:1038D0001FE0B80302D55FF480201AE0F80302D598
:1038E0005FF4002015E0380402D55FF4801010E08A
:1038F000780402D55FF400100BE0B80402D55FF441
:10390000800006E0380702D55FF4000001E05FF4B4
:103910008030BDE8F081010063480068C0084FF4C2
:103920007A72B0FBF2F041F2883202FB00F2100032
:10393000421E002802D15FF0004015E0486B10F0F5
:10394000450FF4D0486B400703D50420886304205A
:103950000AE0486BC00703D501208863012003E01B
:1039600040F2FF5088630020704701004E48006815
:10397000C0084FF47A72B0FBF2F041F2883202FBD9
:1039800000F21000421E002802D15FF000400EE05D
:10399000486B10F0450FF4D0486B400703D5042066
:1039A0008863042003E040F2FF50886300207047E2
:1039B0002DE9F04104000D0016003B480068C008E6
:1039C0004FF47A71B0FBF1F041F2883101FB00F85D
:1039D0004046B0F10108002802D15FF0004035E018
:1039E000606B10F0450FF3D0606B400703D50420E7
:1039F000A06304202AE0606BC00703D50120A06308
:103A0000012023E02000FFF702FD2900C9B288420F
:103A100001D001201AE040F2FF50A06300212000F5
:103A2000FFF7F8FC070017F4604F03D1380C308023
:103A300000200BE0780402D54FF4005006E0380473
:103A400002D54FF4805001E05FF48030BDE8F08192
:103A5000010015480068C0084FF47A72B0FBF2F01C
:103A600041F2883202FB00F21000421E002802D10F
:103A70005FF0004010E0486B10F0450FF4D0486B49
:103A8000400703D540208863042005E0486B4006CA
:103A900001D5402088630020704700000081FFFFAF
:103AA00000E1F505000010800000002008E0FFFDA7
:103AB0007047704770470000F8B504000025FEF716
:103AC000D9FC0600002C01D1012067E0606A0028C3
:103AD000002084F83400022084F835002068006853
:103AE000400840002168086020680068C0070BD5C6
:103AF000FEF7C0FC801B0628F6D32020606503205B
:103B000084F83500032049E0206800680500DFF8EC
:103B1000F00205406068A1680843E1680843216934
:103B2000084361690843A1690843E1690843216AC0
:103B300008430543606A042803D1E06A216B084307
:103B4000054320680560206840690500ED08ED0028
:103B5000606A0543606A042810D1A06A0543E06AE0
:103B600000280BD0200000F055F9002806D0402096
:103B70006065012084F8350001200FE02068456170
:103B8000200000F025F907003F20E16D8840B86073
:103B900000206065012084F835000020F2BD01009E
:103BA00091F83500022803D080204865012009E003
:103BB000052081F8350008680068400840000A6860
:103BC000106000207047F8B5040000200090DFF876
:103BD0003C0200684FF41651B0FBF1F6A76D38684F
:103BE00005000820E16D8840054211D0206800687A
:103BF00040070DD52068006830F004002168086097
:103C00000820E16D8840B860606D50F0010060658B
:103C10007C48E16D884005420BD020684069000671
:103C200007D57848E16D8840B860606D50F00200BB
:103C300060657548E16D884005420BD020680068DA
:103C4000800707D57048E16D8840B860606D50F01E
:103C5000040060651020E16D884005422DD0206889
:103C60000068000729D51020E16D8840B860206801
:103C70000068400311D520680068000306D4206C5A
:103C800000281AD02000216C884716E0A06C00287C
:103C900013D02000A16C88470FE020680068C005A1
:103CA00005D42068006830F0080021680860206CA6
:103CB000002802D02000216C88472020E16D884038
:103CC000054260D020680068C0065CD52020E16D08
:103CD0008840B86094F83500052828D1206800682D
:103CE00030F01600216808602068406930F08000DC
:103CF00021684861206C002802D1A06C002805D002
:103D00002068006830F00800216808603F20E16DFD
:103D10008840B860002084F83400012084F8350021
:103D2000206D002802D02000216D88474FE02068D8
:103D30000068400311D520680068000306D4606C59
:103D4000002820D02000616C88471CE0E06B002830
:103D500019D02000E16B884715E020680068C00595
:103D60000BD42068006830F0100021680860002043
:103D700084F83400012084F83500E06B002802D07C
:103D80002000E16B8847606D002820D0606DC0077F
:103D900017D5052084F835002068006840084000E9
:103DA000216808600098401C0090864203D3206878
:103DB0000068C007F6D4002084F83400012084F89D
:103DC0003500E06C002802D02000E16C8847F1BD8E
:103DD000017801F0FF0110391822B1FBF2F10C4A11
:103DE000525CC265042905D30268920A9202121D30
:103DF000826503E00268920A92028265806D7047D4
:103E00003F8010F0010080000400800000000020CE
:103E1000607B000810B4010000208A6A8B69002BC7
:103E200016D1002A05D0022A03D008D3032A0DD0C8
:103E30000DE0CB6ADB0101D50123180035E0CB6A28
:103E4000B3F1C07F01D1012318002EE02DE02CE05A
:103E50008B69B3F5005F18D1002A05D0022A03D080
:103E600005D3032A09D00FE0012318001DE0CB6A17
:103E7000DB0101D50123180017E0CB6AB3F1C07F45
:103E800001D10123180010E00FE01300002B022BDA
:103E900002D9DB1E03D008E00123180005E0CB6A3D
:103EA000DB0101D501231800FFE7C0B210BC704749
:103EB0007047000010F007024E4B1B6819004FF6C8
:103EC000FF0319404C4B53EA02231943494B196035
:103ED000704748480068C0F302207047012110F085
:103EE0001F029140454A40B2430942F823107047EF
:103EF00010B440B2002808D50A01414B40B210F07E
:103F00000F04234403F8042C03E00A013D4B40B2A4
:103F10001A5410BC704770B4030013F00704D4F1B6
:103F20000706052E01D3042001E0D4F10700261D69
:103F3000072E01D2002500E0E51E012616FA00F04A
:103F4000401E0840A8400121A940491E11400843D5
:103F500070BC704710B50400601EB0F1807F01D3C3
:103F600001200EE0601E284908600F215FF0FF303D
:103F7000FFF7BEFF0020254908600720244908609C
:103F8000002010BD10B504002000FFF793FF10BD06
:103F9000F8B504000D0016000027FFF79AFF070090
:103FA000320029003800FFF7B6FF0100200040B2C0
:103FB000FFF79EFFF1BD10B50400200040B2FFF7EF
:103FC0008DFF10BD10B504002000FFF7C3FF10BD2A
:103FD000042806D10E49096851F004010C4A116009
:103FE00005E00B49096831F00401094A1160704786
:103FF000000000000CED00E00000FA0500E100E028
:1040000018ED00E000E400E014E000E018E000E05B
:1040100010E000E080B500F001F801BD704700003D
:10402000F8B400230024002500263200102A80F076
:10403000E7800126964033000E681E4034009C4203
:1040400040F0DC804E68022E02D04E68122E16D14F
:10405000D60800EB8606366A35000F2612F00707F1
:10406000FFB2BF00BE40B5430E6912F00707FFB2B2
:10407000BF00BE403543D60800EB860635620668B1
:10408000350003261700FFB27F00BE40B5430E790E
:1040900016F003061700FFB27F00BE4035430560EF
:1040A0004E68012E08D04E68022E05D04E68112EA3
:1040B00002D04E68122E19D18668350003261700EB
:1040C000FFB27F00BE40B543CE681700FFB27F004D
:1040D000BE40354385604668350001269640B543AD
:1040E0004E68C6F30016964035434560C6683500F5
:1040F00003261700FFB27F00BE40B5438E6817004D
:10410000FFB27F00BE403543C5604E68F60075D5EE
:10411000002600963B4E366856F48046394F3E6086
:10412000384E366816F480460096009E364E970844
:1041300056F8276035000F2612F00307FFB2BF00C4
:10414000BE40B543314EB04201D1002623E0304E8F
:10415000B04201D101261EE02E4EB04201D102260E
:1041600019E02D4EB04201D1032614E02B4EB0428F
:1041700001D104260FE02A4EB04201D105260AE003
:10418000284EB04201D1062605E0274EB04201D1AB
:10419000072600E00826F6B212F00307FFB2BF00C0
:1041A000BE403543184E970846F827501F4E3668D4
:1041B0003500A5434E68F60300D525431B4E3560F8
:1041C0001B4E36683500A5434E68B60300D525431F
:1041D000174E3560174E36683500A5434E68F60217
:1041E00000D52543134E3560134E36683500A54380
:1041F0004E68B60200D525430F4E3560521C15E7B8
:10420000F1BC7047443802400838014000000240C9
:104210000004024000080240000C0240001002406E
:104220000014024000180240001C0240003C014003
:10423000043C0140083C01400C3C014080B500F0CA
:104240000FF900F00EF800F0A4F800F082F800F08A
:104250006AF800F025F900F031F90120774908608B
:10426000FEE700B593B0002000907548006850F05C
:104270008050734908607248006810F080500090C8
:104280000098002000906F48006850F480406D490D
:1042900008606C48006810F480400090009801208D
:1042A00006905FF48030079002200C905FF480004D
:1042B0000D9004200E90A8200F900220109007204F
:1042C000119006A800F014F9002803D09C215E4844
:1042D00000F0C4F80F20019002200290002003900B
:1042E0004FF4A05004904FF480500590052101A890
:1042F00000F0D8FA002803D0AA21534800F0AEF805
:1043000000F098FB4FF47A71B0FBF1F0FFF75AFE22
:104310000420FFF75DFE002200215FF0FF30FFF771
:1043200037FE13B000BD494849490860002048499C
:10433000486000204649886000204549C860002048
:104340004349086100204249486100204049886192
:10435000704780B5002000903E48006850F480000F
:104360003C4908603B48006810F4800000900098C9
:10437000002206213B20FFF70BFE3B20FFF71BFE30
:10438000002206214520FFF703FE4520FFF713FE1C
:1043900001BD00B587B0002000902E48006850F0A5
:1043A00080002C4908602B48006810F080000090C5
:1043B0000098002000902748006850F0040025492C
:1043C00008602448006810F0040000900098002065
:1043D00000902048006850F001001E4908601D4808
:1043E000006810F00100009000980020009019482B
:1043F000006850F00800174908601648006810F07F
:10440000080000900098002000901248006850F0CA
:104410000200104908600F48006810F00200009088
:1044200000984FF4806001900020029000200390DB
:1044300001A90948FFF7F4FD07B000BD8C852542AE
:104440004038024000700040D8790008002C01403C
:10445000EC6A00203038024000000240FEE7000015
:1044600080B50E48006850F400700C4908600B4895
:10447000006850F48060094908600848006850F4FA
:104480008070064908600320FFF77CFD002000F0E3
:104490003BFBFEF75FFE002002BD0000003C024037
:1044A00080B50349034800F06FFB0349087001BD64
:1044B000746C0020CC7A00088C6C002080B500223F
:1044C0000749084800F06CFB0749064800F084FBE8
:1044D0000649044800F024FE024800F08AFB01BDB2
:1044E00004000020F064002038000020DC000020E0
:1044F00070B582B0040000252078C00768D5DFF8C9
:104500007803006810F00C0004280BD0DFF8680373
:10451000006810F00C0008280ED1DFF86003006876
:10452000400209D5DFF858030068800350D5606861
:1045300000284DD101209EE16068B0F5803F08D190
:10454000DFF83C03006850F48030DFF83413086073
:104550001FE06068B0F5A02F0FD1DFF824030068DA
:1045600050F48020DFF818130860DFF814030068A7
:1045700050F48030C24908600BE0C148006830F454
:104580008030BF490860BE48006830F48020BC49D4
:104590000860606800280DD0FDF76CFF0500B84882
:1045A0000068800314D4FDF765FF401B6528F6D32F
:1045B000032060E1FDF75EFF0500B148006880035D
:1045C00006D5FDF757FF401B6528F6D3032052E1BF
:1045D000207880075AD5A848006810F00C0F09D041
:1045E000A548006810F00C0008281BD1A3480068FB
:1045F000400217D4A2480068800704D5E06801286B
:1046000001D0012037E19E4800685FF0F851B1FA0F
:1046100081F130F0F800226912FA01F1084398495B
:10462000086033E0E06800281FD001209549086049
:10463000FDF720FF050092480068800706D4FDF7CB
:1046400019FF401B0328F6D3032014E18C480068AF
:104650005FF0F851B1FA81F130F0F800226912FAF6
:1046600001F108438649086010E000208549086090
:10467000FDF700FF050082480068800706D5FDF7BA
:10468000F9FE401B0328F6D30320F4E0207800074E
:1046900024D56069002810D001207B490860FDF70F
:1046A000E9FE050079480068800717D4FDF7E2FEAF
:1046B000401B0328F6D30320DDE000207249086088
:1046C000FDF7D8FE050071480068800706D5FDF7A4
:1046D000D1FE401B0328F6D30320CCE0207840070E
:1046E0006AD5002000906A48006850F08050684900
:1046F00008606748006810F0805000900098654896
:10470000006850F4807063490860FDF7B3FE05004F
:1047100060480068C00506D4FDF7ACFE401B0328C6
:10472000F6D30320A7E0A068012806D15A48006804
:1047300050F00100584908601BE0A06805280CD122
:104740005548006850F0040053490860524800681A
:1047500050F00100504908600BE04F4800684008E5
:1047600040004D4908604C48006830F004004A4958
:104770000860A06800280FD0FDF77CFE05004648C1
:104780000068800718D4FDF775FE401B41F289319F
:104790008842F4D303206EE0FDF76CFE05003E482E
:1047A0000068800708D5FDF765FE401B41F289319E
:1047B0008842F4D303205EE0A06900285AD02E4836
:1047C000006810F00C00082852D0A06902283ED1E1
:1047D000002032490860FDF74DFE050028480068BA
:1047E000800106D5FDF746FE401B0328F6D30320C3
:1047F00041E02B48B0FA80F24FF44040B0FA80F02C
:10480000F021B1FA81F1E369266A3343666A16FA48
:1048100002F21A43A36A5B085B1E13FA00F010430E
:10482000E26A12FA01F108431449086001201B49A9
:104830000860FDF71FFE050011480068800119D4CB
:10484000FDF718FE401B0328F6D3032013E00020D9
:1048500012490860FDF70EFE050009480068800156
:1048600008D5FDF707FE401B0328F6D3032002E01E
:10487000012000E0002076BD0838024004380240E4
:104880000038024000004742800E47427438024020
:1048900040380240007000407038024060004742DB
:1048A0000000FE0370B504000D0000266348006898
:1048B00010F00F00A84209D2604805705F480068F8
:1048C00010F00F00A84201D00120B2E0207880074C
:1048D00007D55B48006830F0F000A16808435849EC
:1048E00008602078C00769D56068012805D155485F
:1048F0000068800313D401209BE06068022802D086
:104900006068032805D14F480068800107D4012062
:104910008FE04C480068800701D4012089E04848B6
:104920000068800880006168084345490860FDF719
:10493000A1FD0600606801280ED14148006810F012
:104940000C0004283AD0FDF795FD801B41F2893117
:104950008842F2D303206CE0606802280ED1384808
:10496000006810F00C00082828D0FDF783FD801B9C
:1049700041F289318842F2D303205AE0606803286B
:104980000ED12F48006810F00C000C2816D0FDF74F
:1049900071FD801B41F289318842F2D3032048E047
:1049A0002748006810F00C0F08D0FDF763FD801B4E
:1049B00041F289318842F3D303203AE01F4800686E
:1049C00010F00F00854209D21C4805701B48006892
:1049D00010F00F00A84201D001202AE02078400703
:1049E00007D51748006830F4E050E16808431449DF
:1049F00008602078000708D51148006830F460404E
:104A0000216950EAC1000E49086000F021F80C4904
:104A100009680D4A11F0F0015FF07063B3FA83F397
:104A2000D940515CC84009490860002000F06CF88A
:104A3000002070BD0548006870470000003C02403F
:104A40000838024000380240087B000800000020BF
:104A500070B40021002200230020264C246814F0AA
:104A60000C04002C04D0042C05D0082C06D03DE00A
:104A7000214C20003CE0214C200039E0204C2468EF
:104A800014F03F0421001E4C246864020FD51C4C16
:104A900024681A4DB5FBF1F547F6C0763440194E3F
:104AA000B6FA86F6F44004FB05F422000EE0144C3E
:104AB0002468114DB5FBF1F547F6C0763440114E30
:104AC000B6FA86F6F44004FB05F422000C4C246888
:104AD00014F440344FF44045B5FA85F5EC40641CBD
:104AE00064002300B2FBF3F4200001E0024C20003C
:104AF00070BC7047083802400024F40000127A00AD
:104B0000043802400000FE0310B5040007480068A6
:104B10004FF47A71B0FBF1F0FFF754FA0022210054
:104B20005FF0FF30FFF734FA002010BD00000020D6
:104B3000F0B4030001200024184D6D7A022D20DA14
:104B40000025164E154F7F7AF555144D134E767A83
:104B500005EB86056B60114D104E767A35442A724E
:104B60000E4D6D7A6E1C0D4F7E722C0014F13005C7
:104B70000D703A254D702F258D700025CD700025C4
:104B80002800C0B2F0BC704738B504000D00002208
:104B900029002000FFF7CCFF32BD0000686C002028
:104BA00070B504000D001600002C01D1022012E0A7
:104BB000D4F81402002802D00020C4F81402002DFA
:104BC00001D0C4F81052012084F8FC0126702000A6
:104BD00000F074FB002070BD02000020002904D00A
:104BE000C2F814120023180001E002231800C0B21A
:104BF000704710B50400200000F0B4FB002010BD89
:104C000001000020704770B504000D000226D4F8A2
:104C1000140200280AD02900C9B22000D4F81422B6
:104C200012689047002801D1002006003000C0B271
:104C300070BD38B504000D002900C9B22000D4F8B9
:104C4000142252689047002032BD38B504000D0090
:104C500029004FF40270204401F006F80120C4F846
:104C6000F401B4F80E02C4F8F80194F8080210F048
:104C70001F00C0B2002803D0022811D008D317E0CB
:104C80004FF4027004EB0001200000F009FD16E073
:104C90004FF4027004EB0001200000F03FFD0EE035
:104CA0004FF4027004EB0001200000F05DFD06E00F
:104CB00094F8080210F08001200000F0F6FB0020BC
:104CC00032BDF8B504000D001600EDB2002D2ED156
:104CD0004FF4827020440700D4F8F401032836D141
:104CE000F868B968884210D2B868F968401AB860A4
:104CF000B868F968884201D2BA6800E0FA6892B2EE
:104D00003100200001F01EF821E0D4F814020069FF
:104D1000002808D094F8FC01032804D12000D4F81E
:104D2000141209698847200001F019F80FE0D4F83F
:104D30001402806900280AD094F8FC01032806D1E7
:104D40002900C9B22000D4F81422926990470020AB
:104D5000F2BDF8B504000D001600EDB2002D57D1DC
:104D600014F114000700D4F8F401022845D1F868C2
:104D7000B968884210D2B868F968401AB860BA6851
:104D800092B23100200000F0D0FF00230022002169
:104D9000200000F047FC30E07868F968B0FBF1F2E1
:104DA00001FB1200002817D17868F968884213D3F4
:104DB0007868D4F8F81188420ED200220021200031
:104DC00000F0B3FF0020C4F8F80100230022002106
:104DD000200000F027FC10E0D4F81402C06800287E
:104DE00008D094F8FC01032804D12000D4F8141250
:104DF000C9688847200000F0BFFF94F8000201282E
:104E000016D12000FFF7FCFE002084F800020FE01E
:104E1000D4F81402406900280AD094F8FC01032851
:104E200006D12900C9B22000D4F814225269904753
:104E30000020F2BD10B50400402300220021200014
:104E400000F0B3FA4020C4F8100140230022802172
:104E5000200000F0AAFA40202062012084F8FC0122
:104E6000D4F81802002806D06168C9B22000D4F82E
:104E7000142252689047002010BD020011740020D7
:104E80007047010091F8FC0181F8FD01042081F8D0
:104E9000FC0100207047010091F8FD0181F8FC0140
:104EA0000020704710B5040094F8FC01032809D1D4
:104EB000D4F81402C069002804D02000D4F81412D9
:104EC000C9698847002010BD020000207047020019
:104ED0000020704701000020704710B50400012039
:104EE00084F8FC016168C9B22000D4F81422526829
:104EF0009047002010BD000070B504000D00002692
:104F0000207C00280ED14FF40073022201212000E2
:104F100000F04BFA4FF4007302228121200000F0D0
:104F200044FA0BE0402302220121200000F03DFA68
:104F3000402302228121200000F037FA40F26C4029
:104F4000FBF7B0FFC4F81802D4F81802002802D109
:104F50000120060004E0200000F01CFF00200600F5
:104F60003000C0B270BD38B504000D000121200032
:104F700000F04FFA8121200000F04BFA200000F0F1
:104F80003CFFD4F81802002806D0D4F81802FCF729
:104F9000E4F80020C4F81802002032BD70B5040007
:104FA0000D00D4F81862287810F06000C0B2002814
:104FB0003CD0202840F082806878FE2802D0FF286C
:104FC0001AD02CE06888002810D1E88801280DD17B
:104FD000287800060AD5D4F81C0280698047306022
:104FE00001223100200000F08CFE1EE0290020008C
:104FF00000F04EFE022062E06888002809D1E888AF
:10500000002806D12878000603D4200000F0E5FE31
:105010000BE02900200000F03BFE02204FE02900B9
:10502000200000F035FE022049E047E068780128C2
:105030000DD00A2802D00B2806D03EE00122311DF7
:10504000200000F05EFE38E0A878706035E0A988A6
:10505000C9B2200000F003FAA988C9B2200000F00C
:10506000D8F92879C0B2000611D5207C002807D1D4
:105070004FF4007302228121200000F096F917E01E
:10508000402302228121200000F08FF910E0207CD3
:10509000002807D14FF4007302220121200000F004
:1050A00084F905E0402302220121200000F07DF96F
:1050B000A988C9B2200000F0A5FFFFE7002070BD5D
:1050C00038B504000D002900C9B2200000F09AFE96
:1050D000002032BD38B504000D002900C9B22000FF
:1050E00000F0B0FE002032BD0100202008800848FA
:1050F00070470100202008800648704701002020EA
:1051000008800548704701000A200880034870475E
:105110007000002090000020B0000020D00000208F
:105120000200002901D0C2F81C12002070470000C4
:1051300010B586B004002068B0F1A04F2AD14FF41A
:10514000C0500190022002900020039003200490A0
:105150000A20059001A97D48FEF762FF7C4800689F
:1051600050F080007A49086000200090794800687B
:1051700050F48040774908607648006810F4804019
:1051800000900098002207214320FEF701FF4320F2
:10519000FEF711FF06B010BD10B504004FF46F709C
:1051A00004EB0001D4F8EC03FFF74FFD10BD38B558
:1051B00004000D00EDB21C2000FB05F02044D0F8E7
:1051C00004222900C9B2D4F8EC03FFF77AFD31BDFF
:1051D00038B504000D00EDB21C2000FB05F02044A2
:1051E000426C2900C9B2D4F8EC03FFF7B2FD31BD1F
:1051F00010B50400D4F8EC03FFF754FE10BD38B529
:1052000004000125E068002802D0022803D005E050
:105210000020050004E00120050001E00120050058
:105220002900C9B2D4F8EC03FFF727FED4F8EC0349
:10523000FFF700FE31BD10B50400D4F8EC03FFF712
:1052400020FE206810F56060006850F001002168C1
:1052500011F560610860206A002805D03E480068AA
:1052600050F006003C49086010BD10B50400D4F8A9
:10527000EC03FFF710FE10BD38B504000D00290047
:10528000C9B2D4F8EC03FFF722FE31BD38B50400F3
:105290000D002900C9B2D4F8EC03FFF715FE31BDAB
:1052A00010B50400D4F8EC03FFF714FE10BD10B5E0
:1052B0000400D4F8EC03FFF710FE10BD10B5040095
:1052C000207800283FD12548C0F8EC432348C4F893
:1052D00020025FF0A0402149086004201F49486077
:1052E00002201E49C86000201C49086100201B499B
:1052F000486102201949886100201849C8610020CE
:105300001649086200201549486200201349C86206
:10531000002012490863114800F08EFE002804D0D6
:105320004FF49A710E48FFF799F880210B4801F06D
:1053300080FC40220021094801F04AFC8022012122
:10534000064801F045FC002010BD000000000240AE
:10535000343802404438024010ED00E00061002083
:105360009C79000870B5040000250026D4F82002BE
:1053700000F0FFFE0500EDB2002D05D0022D09D092
:1053800005D3032D09D00BE0002006000AE002201F
:10539000060007E00120060004E00220060001E00C
:1053A000022006003000C0B270BD2DE9F8430400B1
:1053B0000D0016001F005FF000085FF000093300C9
:1053C000DBB23A0092B22900C9B2D4F8200201F04F
:1053D0001DFA80465FFA88F8B8F1000F07D0B8F1DF
:1053E000020F0AD006D3B8F1030F09D00BE000205A
:1053F00081460AE00220814607E00120814604E060
:105400000220814601E0022081464846C0B2BDE844
:10541000F283F8B504000D00002600272900C9B268
:10542000D4F8200201F040FA0600F6B2002E05D0B2
:10543000022E09D005D3032E09D00BE0002007006F
:105440000AE00220070007E00120070004E0022034
:10545000070001E0022007003800C0B2F2BDF8B535
:1054600004000D00002600272900C9B2D4F820024C
:1054700001F032FB0600F6B2002E05D0022E09D054
:1054800005D3032E09D00BE0002007000AE002201C
:10549000070007E00120070004E00220070001E008
:1054A000022007003800C0B2F2BDF8B504000D00BC
:1054B000002600272900C9B2D4F8200201F09AFA88
:1054C0000600F6B2002E05D0022E09D005D3032E19
:1054D00009D00BE0002007000AE00220070007E0E7
:1054E0000120070004E00220070001E0022007007D
:1054F0003800C0B2F2BDF8B504000D000026002748
:105500002900C9B2D4F8200201F0B3FA0600F6B2BD
:10551000002E05D0022E09D005D3032E09D00BE0B2
:10552000002007000AE00220070007E00120070032
:1055300004E00220070001E0022007003800C0B2AA
:10554000F2BD0200D2F82002C9B20B0608D5C9B2DA
:1055500011F07F011C235943084490F83A0007E0FA
:10556000C9B211F07F011C235943084490F8FA0195
:105570007047F8B504000D00002600272900C9B2C5
:10558000D4F8200201F02CF90600F6B2002E05D066
:10559000022E09D005D3032E09D00BE0002007000E
:1055A0000AE00220070007E00120070004E00220D3
:1055B000070001E0022007003800C0B2F2BD2DE96B
:1055C000F84304000D0016001F005FF000085FF0B4
:1055D0000009BFB23B0032002900C9B2D4F8200252
:1055E00001F0D4F980465FFA88F8B8F1000F07D0CF
:1055F000B8F1020F0AD006D3B8F1030F09D00BE0BF
:10560000002081460AE00220814607E00120814611
:1056100004E00220814601E0022081464846C0B2F3
:10562000BDE8F2832DE9F84304000D0016001F00C9
:105630005FF000085FF00009BFB23B0032002900B4
:10564000C9B2D4F8200201F061F980465FFA88F807
:10565000B8F1000F07D0B8F1020F0AD006D3B8F1A5
:10566000030F09D00BE0002081460AE002208146AA
:1056700007E00120814604E00220814601E002208B
:1056800081464846C0B2BDE8F28338B504000D003B
:105690002900C9B2D4F8200201F06EF932BD000031
:1056A00070B504000D0000266878002820D001287D
:1056B00028D0032821D005280BD0062804D008289C
:1056C00011D009280AD022E02900200000F006F9B4
:1056D00021E02900200000F0B3F91CE0290020009F
:1056E00000F0DEF917E02900200000F049FA12E08E
:1056F0002900200000F06AFA0DE02900200000F0E7
:1057000083FA08E02900200000F091FA03E0290064
:10571000200000F0BDFA3000C0B270BD70B50400CA
:105720000D00002694F8FC01032817D128790228DF
:105730000FDA29002000D4F8142292689047E888F4
:1057400000280AD1F6B2002E07D1200000F007FB96
:1057500003E02900200000F09BFA03E0290020006C
:1057600000F096FA002070BD2DE9F04104000D0014
:105770000027A8880600287810F06000202807D1AC
:1057800029002000D4F81422926890470020A3E05A
:105790006878002861D0012832D0032840F09A8030
:1057A00094F8FC01022802D003280CD023E0F6B2C2
:1057B000002E07D0F6B2802E04D03100C9B22000EE
:1057C000FFF773FE1BE0688800280AD1F6B2002EAE
:1057D00007D0F6B2802E04D03100C9B22000FFF706
:1057E00064FE29002000D4F814229268904720001B
:1057F00000F0B5FA03E02900200000F049FA69E062
:1058000094F8FC01022802D003280CD020E0F6B264
:10581000002E07D0F6B2802E04D03100C9B220008D
:10582000FFF743FE18E06888002810D17F20064269
:105830000AD03100C9B22000FFF75DFE2900200028
:10584000D4F8142292689047200000F088FA03E010
:105850002900200000F01CFA3CE094F8FC0102282A
:1058600002D0032809D030E07F20064204D0310066
:10587000C9B22000FFF719FE2BE0F6B2300607D5BB
:10588000F6B216F07F000001204410F1140808E081
:10589000F6B216F07F00000120444FF4827100EB55
:1058A00001083100C9B22000FFF74BFE002803D0E9
:1058B0000120C8F8000002E00020C8F80000022221
:1058C0004146200000F01DFA03E02900200000F00E
:1058D000DFF9FFE73800C0B2BDE8F08170B582B0F3
:1058E00004000D00688880B2000AC0B2012808D008
:1058F00002280ED0032821D0062861D007286ED0B8
:105900007EE06946207CD4F8102212689047060099
:105910007BE0207C002808D16846D4F81412896AFC
:10592000884706000220707007E06846D4F8141219
:10593000C96A884706000220707066E0A8780028CF
:1059400008D0022816D00DD3042823D01AD3052856
:1059500028D02FE06946207CD4F810225268904766
:1059600006002CE06946207CD4F81022926890470B
:10597000060024E06946207CD4F81022D2689047C3
:1059800006001CE06946207CD4F81022126990477A
:10599000060014E06946207CD4F810225269904732
:1059A00006000CE06946207CD4F8102292699047EA
:1059B000060004E02900200000F06AF93FE024E03E
:1059C000207C002806D16846D4F81412496B884719
:1059D00006001AE02900200000F05AF92FE0207C90
:1059E000002808D16846D4F81412096B88470600CD
:1059F0000720707009E02900200000F049F91EE03E
:105A00002900200000F044F919E0BDF8000000284A
:105A100015D0E888002812D0BDF80000E988884237
:105A200004D2BDF80000ADF8000002E0E888ADF84F
:105A30000000BDF800203100200000F062F973BDC5
:105A400070B504000D00A888002824D1E88800283B
:105A500021D1A87810F07F00060094F8FC010328FB
:105A600004D12900200000F013F918E084F8FE6149
:105A70003100C9B22000FFF77CFD200000F06FF973
:105A8000F6B2002E03D0022084F8FC0107E00120CA
:105A900084F8FC0103E02900200000F0F9F870BD53
:105AA00038B504000D006888344908703348007820
:105AB000022804DB2900200000F0EAF85CE094F8FA
:105AC000FC01022802D003281ED051E02B480078A8
:105AD000002815D0294800786060032084F8FC0174
